:100000000C942A000C9447000C9447000C94470071
:100010000C9447000C9447000C9447000C94A00CDF
:100020000C9447000C9447000C9447000C94470034
:100030000C9447000C9447000C9447000C94470024
:100040000C9447000C9447000C9447000C94470014
:100050000C94470011241FBECFE5D8E0DEBFCDBF12
:1000600010E0A0E6B0E0E6EDFAE302C005900D92E4
:10007000AE38B107D9F717E0AEE8B0E001C01D9285
:10008000A830B107E1F70E94E11B0C94691D0C94A4
:100090000000AF92BF92CF92DF92EF92FF920F9348
:1000A000DF93CF930F92CDB7DEB789838AE062E00A
:1000B00040E00E94290D90939100809390008DEC78
:1000C00090E020E630E0E0E9F0E0B90145E550E0FD
:1000D0009F010981EE24FF24CC24DD24AA24BB2423
:1000E0000E94D21380E990E028E630E0E0E9F0E0F9
:1000F000B90145E550E09F010981EE24FF24CC249D
:10010000DD24AA24BB240E94D2130F90CF91DF914B
:100110000F91FF90EF90DF90CF90BF90AF90089538
:10012000DF93CF9300D000D000D0CDB7DEB79E8351
:100130008D831C821B821A82198227C0ED81FE8169
:10014000808191819E012D5F3F4FB90140E050E0D9
:1001500020E00E94A60D813019F081E08A8312C050
:100160008A81882351F40FB6F8940F9280918F0002
:100170008F5F80938F000F900FBE8B819C810196C3
:100180009C838B8389818F5F898389818330B4F2DB
:1001900088EC90E00E948C15CFCFDF93CF93CDB742
:1001A000DEB727970FB6F894DEBF0FBECDBF9F8393
:1001B0008E831B821A8219822FC0EE81FF8180817B
:1001C00091819E012C5F3F4FB90140E050E020E05B
:1001D0000E94B40E813001F52C813D818A819B8182
:1001E0002817390739F081E089838C819D819B83B1
:1001F0008A830DC08981882351F40FB6F8940F9239
:1002000080918E008F5F80938E000F900FBE8A8149
:100210009B8101969B838A83EE81FF8180819181FE
:100220000E940810882349F684EB90E00E948C1508
:10023000F3CFDF93CF930F92CDB7DEB780918E00CF
:10024000882321F080918F00882311F4198202C045
:1002500081E0898310928E0010928F0089810F9027
:10026000CF91DF910895DF93CF93CDB7DEB7279776
:100270000FB6F894DEBF0FBECDBF9D838C836E8317
:100280004F838AE190E00E944B079A83898389819A
:100290009A81009709F46FC0809192009091930029
:1002A000009741F489819A81909393008093920002
:1002B0000E949A038E81823010F081E08E83E98162
:1002C000FA81118E108EE981FA818E81868BE98107
:1002D000FA818F81878BE981FA818C819D8191835D
:1002E000808389819A8102960E94C30889819A81BC
:1002F0000C960E94C308E981FA8189819A819187CD
:100300008087E981FA8189819A81938B828B8E81A2
:10031000282F30E082E090E0821B930BE981FA8184
:1003200095878487E981FA8196898091940089175D
:1003300028F4E981FA81868980939400E981FA8121
:100340008689282F30E0C901880F991F880F991FCF
:10035000880F991F820F931FAC0145565F4F89810B
:100360009A819C012E5F3F4FCA01B9010E94D308B8
:1003700081E08B8302C08FEF8B838B8127960FB632
:10038000F894DEBF0FBECDBFCF91DF910895DF930C
:10039000CF9300D000D000D0CDB7DEB79C838B8345
:1003A0007E836D8320919500309196008B819C8196
:1003B000820F931F9A83898380919200909193007A
:1003C00002960E948309E0919200F0919300898146
:1003D0009A81938382832091950030919600898140
:1003E0009A818217930770F48091C1009091C200A6
:1003F00020919200309193002E5F3F4FB9010E94EF
:1004000017090DC08091BF009091C000209192000B
:10041000309193002E5F3F4FB9010E9417098D81E3
:100420009E81009761F080919200909193009C01D1
:10043000245F3F4F8D819E81B9010E941709269646
:100440000FB6F894DEBF0FBECDBFCF91DF910895F8
:10045000DF93CF9300D0CDB7DEB73AC0F894E091E8
:10046000C800F091C900868197819A838983898128
:100470009A810C960E948309789489819A810296C8
:100480000E948309E981FA819689809194008917F5
:1004900028F4E981FA81868980939400E981FA81C0
:1004A0008689282F30E0C901880F991F880F991F6E
:1004B000880F991F820F931FAC0145565F4F8981AA
:1004C0009A819C012E5F3F4FCA01B9010E94D30857
:1004D0008091C300882309F0C1CF0F900F90CF9176
:1004E000DF910895DF93CF9300D000D0CDB7DEB772
:1004F0000E949A162091970030919800821B930BCE
:1005000090939A008093990085C080919500909176
:1005100096000196909396008093950080919900A3
:1005200090919A00019790939A00809399008091FE
:10053000950090919600009709F064C08091BF00EB
:100540009091C0009A8389838091C1009091C200EC
:100550009093C0008093BF0089819A819093C200DC
:100560008093C1004FC0E091BF00F091C0000580B2
:10057000F681E02D868197819C838B83EB81FC81C2
:100580002281338180919500909196008217930784
:1005900008F440C0F8948B819C8102960E948309E4
:1005A000EB81FC8184899589009729F08B819C815E
:1005B0000C960E9483097894EB81FC819689809146
:1005C0009400891728F4EB81FC818689809394003C
:1005D000EB81FC818689282F30E0C901880F991FA3
:1005E000880F991F880F991F820F931FAC014556E2
:1005F0005F4F8B819C819C012E5F3F4FCA01B901E7
:100600000E94D308E091BF00F091C0008081882350
:1006100009F0A9CF8091990090919A00009709F074
:1006200074CF80919500909196009093980080935C
:1006300097000F900F900F900F90CF91DF9108953A
:10064000DF93CF9300D0CDB7DEB70E9428020E947F
:1006500072020AC080919400882309F466C08091D8
:10066000940081508093940080919400282F30E072
:10067000C901880F991F880F991F880F991F820F32
:10068000931FFC01E556FF4F8081882319F3809169
:100690009400282F30E0C901880F991F880F991FF7
:1006A000880F991F820F931F85569F4F9A838983C6
:1006B000E981FA810180F281E02D82819381E981D3
:1006C000FA8192838183E981FA8121813281898152
:1006D0009A8103962817390759F4E981FA81018034
:1006E000F281E02D82819381E981FA819283818375
:1006F000E981FA810180F281E02D868197819093D2
:10070000930080939200E0919200F09193004081D9
:1007100051818091920090919300E0919200F0912C
:1007200093002789622FFA0109950F900F90CF91BE
:10073000DF910895DF93CF930F92CDB7DEB7198283
:1007400013C08981282F30E0C901880F991F880FB5
:10075000991F880F991F820F931F85569F4F0E94E4
:10076000990889818F5F89838981823050F38DEA6E
:1007700090E00E94990886EB90E00E94990883EC33
:1007800090E00E9499088DEA90E09093C0008093D9
:10079000BF0086EB90E09093C2008093C1000F9061
:1007A000CF91DF910895DF93CF9300D000D00F92C7
:1007B000CDB7DEB79D838C83EC81FD810580F6810A
:1007C000E02D868197819B838A838A819B810C9609
:1007D0000E9483098A819B819C01245F3F4F83ECA7
:1007E00090E0B9010E94D308EA81FB819689E091EB
:1007F0009200F09193008689981718F081E0898320
:1008000001C0198289810F900F900F900F900F9067
:10081000CF91DF910895DF93CF9300D0CDB7DEB7AE
:100820008BE090E00E944B079A83898389819A81AB
:10083000009749F0E981FA811182108289819A81B9
:1008400002960E94990889819A810F900F90CF910A
:10085000DF910895DF93CF93CDB7DEB760970FB6E2
:10086000F894DEBF0FBECDBF9A8789877C876B87E0
:100870005E874D87388B2F8789859A859C838B83EC
:1008800019820E940416EB81FC81808191819887F6
:100890008F8389859A852B853C85B9010E94FC054B
:1008A0002F8138858B859C85282B392B8D859E85BE
:1008B000282339238D859E8528173907C9F42F8170
:1008C00038858B859C85822B932B9E838D83EB8132
:1008D000FC81208131818D859E8580959095822334
:1008E0009323EB81FC8191838083188A1F861CC02F
:1008F0008F859889009791F08B819C81BC016E5FF8
:100900007F4F8D859E859C0135604F855889CB0131
:10091000B9010E9454181E821D8206C0EB81FC8121
:10092000808191819E838D830E9410168A838F859A
:100930009889009709F43AC08A81882311F40E94AB
:100940008E0B0E94BA1B9E838D838D819E81807049
:100950009270009731F50FB6F8940F92EB81FC81FD
:10096000808191819E838D832D813E818D859E85A1
:10097000282339238D859E852817390771F4EB814B
:10098000FC81208131818D859E8580959095822383
:100990009323EB81FC81918380830F900FBE81E0D4
:1009A00089838D819E8190709E838D838D819E81B0
:1009B00060960FB6F894DEBF0FBECDBFCF91DF912A
:1009C00008950F931F93DF93CF93CDB7DEB763974F
:1009D0000FB6F894DEBF0FBECDBF9D878C877F8793
:1009E0006E87488B298B1B8B0A8B8C859D859B87FB
:1009F0008A871F821E821B820E940416EA85FB855D
:100A0000808191819A83898389819A812E853F850E
:100A1000B90149890E9419078D838D818823C1F00E
:100A200089819A81998788871B8A1A8A888988236D
:100A3000D9F1EA85FB85208131818E859F8580955E
:100A4000909582239323EA85FB85918380832CC034
:100A50008A899B89009729F489819A819987888757
:100A600023C08889882329F08E819F8191609F838C
:100A70008E838989882329F08E819F8194609F834A
:100A80008E838A859B85BC016E5F7F4F2E853F8557
:100A90008E819F81282B392B4A895B89CB01B90133
:100AA0000E945418198618860E9410168C838A8911
:100AB0009B89009709F43BC08C81882311F40E9424
:100AC0008E0B0E94BA1B99878887888599858070CC
:100AD0009270009739F50FB6F8940F92EA85FB856E
:100AE0008081918199878887888599852E853F8522
:100AF000B90149890E941907882389F088898823C8
:100B000071F0EA85FB85208131818E859F858095F6
:100B1000909582239323EA85FB85918380830F90B0
:100B20000FBE1B82888599859070998788878885F4
:100B3000998563960FB6F894DEBF0FBECDBFCF91F7
:100B4000DF911F910F910895DF93CF93CDB7DEB75B
:100B500028970FB6F894DEBF0FBECDBF9E838D835E
:100B600078876F838D819E819C838B830FB6F894E9
:100B70000F92EB81FC81808191819A838983EB8143
:100B8000FC81208131818F81988580959095822389
:100B90009323EB81FC81918380830F900FBE898129
:100BA0009A8128960FB6F894DEBF0FBECDBFCF91C5
:100BB000DF910895DF93CF93CDB7DEB727970FB6B8
:100BC000F894DEBF0FBECDBF9F838E838E819F8141
:100BD0009C838B831D82EB81FC81808191819A8330
:100BE000898389819A8127960FB6F894DEBF0FBE5C
:100BF000CDBFCF91DF910895DF93CF93CDB7DEB70F
:100C000065970FB6F894DEBF0FBECDBF9B8B8A8B66
:100C10007D8B6C8B198618868A899B899B838A8336
:100C200019828A819B8102969B878A878A859B8508
:100C300003969D878C870E940416EA85FB85858133
:100C40009681998B888BEA81FB81208131818C8907
:100C50009D89822B932BEA81FB819183808359C0EC
:100C6000E889F989828193819F878E87E889F9894C
:100C7000808191819F838E8319828E819F81807074
:100C80009D838C838E819F8190709F838E838C81C6
:100C90009D8180709470009769F4EA81FB812081C6
:100CA00031818E819F8182239323009791F081E08F
:100CB00089830FC0EA81FB81208131818E819F81F0
:100CC000282339238E819F812817390711F481E069
:100CD000898389818823C9F08C819D81807091707E
:100CE000009741F0888599852E813F81822B932B37
:100CF00099878887EA81FB81808191819C0132609C
:100D000088899989B9010E9402198E859F85998BDE
:100D1000888B288939898C859D852817390709F0A2
:100D20009FCFEA81FB8120813181888599858095DB
:100D3000909582239323EA81FB81918380830E9493
:100D40001016EA81FB818081918165960FB6F89437
:100D5000DEBF0FBECDBFCF91DF910895DF93CF935C
:100D600000D000D000D0CDB7DEB79E838D838D81BB
:100D70009E819C838B838B819C8102969A8389833D
:100D80000E94041608C0E981FA818581968160E09D
:100D900072E00E940219E981FA818081882399F723
:100DA0008B819C810E94A1070E94101626960FB687
:100DB000F894DEBF0FBECDBFCF91DF910895DF93D2
:100DC000CF9300D000D000D0CDB7DEB79A8389830F
:100DD0004B835C836D837E832B813C8189819A81E7
:100DE000B9010E94FC0526960FB6F894DEBF0FBE2F
:100DF000CDBFCF91DF910895DF93CF9300D000D086
:100E000000D0CDB7DEB79A8389834B835C836D8333
:100E10007E832B813C8189819A81B9010E94A4053E
:100E200026960FB6F894DEBF0FBECDBFCF91DF91EF
:100E30000895DF93CF9300D000D000D0CDB7DEB7B8
:100E40009B838A837D836C834E8319828E81882362
:100E500059F48A819B812C813D81822393230097C1
:100E600081F081E089830DC02A813B818C819D8145
:100E7000282339238C819D812817390711F481E0BB
:100E80008983898126960FB6F894DEBF0FBECDBF49
:100E9000CF91DF910895DF93CF9300D000D0CDB7ED
:100EA000DEB79C838B831A8219820E94041680917C
:100EB000CE009091CF00009731F481ED90E09093B7
:100EC000CF008093CE008091CC009091CD002B81FB
:100ED0003C81820F931F25E08B3D920738F52091CE
:100EE000CC003091CD008B819C81280F391F8091DF
:100EF000CC009091CD0082179307C0F42091CE00D2
:100F00003091CF008091CC009091CD00820F931F43
:100F10009A8389832091CC003091CD008B819C8174
:100F2000820F931F9093CD008093CC000E941016E7
:100F300089819A810F900F900F900F90CF91DF9140
:100F40000895DF93CF9300D0CDB7DEB79A8389831E
:100F50000F900F90CF91DF910895DF93CF93CDB78E
:100F6000DEB71092CD001092CC00CF91DF910895A2
:100F7000DF93CF93CDB7DEB72091CC003091CD0079
:100F80008BED95E0821B930BCF91DF910895AF928B
:100F9000BF92CF92DF92EF92FF920F93DF93CF93A6
:100FA00000D00F92CDB7DEB78B831A8219821BC097
:100FB00089819A81FC01E455F94F85E098E020E7AA
:100FC00030E0B90145E550E09F010B81EE24FF249C
:100FD000CC24DD24AA24BB240E94D21389819A81C7
:100FE00001969A83898389819A811816190604F7D4
:100FF0000F900F900F90CF91DF910F91FF90EF9096
:10100000DF90CF90BF90AF900895DF93CF93CDB78F
:10101000DEB72A970FB6F894DEBF0FBECDBF9A8712
:1010200089871C821B8289859A859A8389838BE7AD
:1010300090E0A0E0B0E08D839E83AF83B8878D8180
:101040009E81AF81B885895B9B46AC4FBF4F8D8336
:101050009E83AF83B8878D819E81AF81B8852DEF48
:101060003FEF4FEF5FEFBC01CD010E94041DDC019B
:10107000CB018D839E83AF83B8878D819E81AF81A5
:10108000B88527E030E040E050E0BC01CD010E948F
:10109000451DDA01C9018D839E83AF83B8878D8199
:1010A0009E81AF81B8858B3127E792072EEFA2078B
:1010B0002FEFB20721F081E090E09C838B838B813E
:1010C0009C81009709F0B3CF0FB6F8940F92E98195
:1010D000FA8181E080830F900FBEA9CFDF93CF9379
:1010E00000D00F92CDB7DEB781E08B831A821982D0
:1010F00014C089819A81FC01E455F94F80818823CD
:1011000009F41B8289819A81FC01E455F94F108210
:1011100089819A8101969A83898389819A81181697
:1011200019063CF78B810F900F900F90CF91DF91B4
:101130000895DF93CF9300D0CDB7DEB79A8389832C
:1011400089819A810396E981FA8192838183E98179
:10115000FA818FEF9FEF9483838389819A8103962D
:10116000E981FA819683858389819A810396E98151
:10117000FA8190878783E981FA8110820F900F901E
:10118000CF91DF910895DF93CF9300D0CDB7DEB735
:101190009A838983E981FA81118610860F900F90D6
:1011A000CF91DF910895DF93CF9300D000D000D08E
:1011B000CDB7DEB79C838B837E836D83EB81FC810F
:1011C000818192819A838983ED81FE8189819A81CF
:1011D00093838283E981FA8184819581ED81FE8107
:1011E00095838483E981FA810480F581E02D8D81E6
:1011F0009E8193838283E981FA818D819E8195838B
:101200008483ED81FE818B819C8191878087EB8136
:10121000FC8180818F5FEB81FC81808326960FB6F5
:10122000F894DEBF0FBECDBFCF91DF910895DF935D
:10123000CF93CDB7DEB728970FB6F894DEBF0FBEB9
:10124000CDBF9E838D8378876F83EF81F885808102
:1012500091819A83898389819A812FEF8F3F9207A9
:1012600039F4ED81FE81878190859C838B8318C042
:101270008D819E8103969C838B8306C0EB81FC81CC
:10128000828193819C838B83EB81FC810280F3813B
:10129000E02D2081318189819A818217930770F72F
:1012A000EB81FC8182819381EF81F8859383828336
:1012B000EF81F8850280F381E02D8F8198859583F9
:1012C0008483EF81F8858B819C8195838483EB8176
:1012D000FC818F81988593838283EF81F8858D814E
:1012E0009E8191878087ED81FE8180818F5FED8176
:1012F000FE81808328960FB6F894DEBF0FBECDBF67
:10130000CF91DF910895DF93CF9300D000D0CDB778
:10131000DEB79C838B83EB81FC81808591859A83EA
:101320008983EB81FC81A281B381EB81FC81848183
:10133000958115969C938E931497EB81FC81A481E3
:10134000B581EB81FC818281938113969C938E936E
:101350001297E981FA81218132818B819C81281742
:10136000390741F4EB81FC8184819581E981FA811F
:1013700092838183EB81FC8111861086E981FA8159
:1013800080818150E981FA818083E981FA818081BD
:101390000F900F900F900F90CF91DF910895DF93F2
:1013A000CF93CDB7DEB728970FB6F894DEBF0FBE48
:1013B000CDBF9C838B837E836D8358874F83EB8166
:1013C000FC8181E180838B819C8101979C838B834D
:1013D000EB81FC8182E280838B819C8101979C83DD
:1013E0008B83EB81FC8183E380838B819C810197DC
:1013F0009C838B838D819E819A8389838981EB81F4
:10140000FC8180838B819C8101979C838B83898164
:101410009A81892F99279A8389838981EB81FC811D
:1014200080838B819C8101979C838B83EB81FC81E2
:1014300010828B819C8101979C838B83EB81FC8143
:1014400080E880838B819C8101979C838B83EB81D7
:10145000FC8110828B819C8101979C838B83EB8123
:10146000FC8182E080838B819C8101979C838B83AC
:10147000EB81FC8183E080838B819C8101979C833D
:101480008B83EB81FC8184E080838B819C8101973D
:101490009C838B83EB81FC8185E080838B819C81A5
:1014A00001979C838B83EB81FC8186E080838B8119
:1014B0009C8101979C838B83EB81FC8187E08083F7
:1014C0008B819C8101979C838B83EB81FC8188E0DD
:1014D00080838B819C8101979C838B83EB81FC8132
:1014E00089E080838B819C8101979C838B83EB8136
:1014F000FC8180E180838B819C8101979C838B831D
:10150000EB81FC8181E180838B819C8101979C83AD
:101510008B83EB81FC8182E180838B819C810197AD
:101520009C838B83EB81FC8183E180838B819C8115
:1015300001979C838B83EB81FC8184E180838B8189
:101540009C8101979C838B83EB81FC8185E1808367
:101550008B819C8101979C838B83EB81FC8186E14D
:1015600080838B819C8101979C838B83EB81FC81A1
:1015700087E180838B819C8101979C838B83EB81A6
:10158000FC8188E180838B819C8101979C838B8384
:10159000EB81FC8189E180838B819C8101979C8315
:1015A0008B83EB81FC8180E280838B819C8101971E
:1015B0009C838B83EB81FC8181E280838B819C8186
:1015C00001979C838B83EB81FC8182E280838B81FA
:1015D0009C8101979C838B83EB81FC8183E28083D8
:1015E0008B819C8101979C838B838F8198859A83C3
:1015F00089838981EB81FC8180838B819C81019728
:101600009C838B8389819A81892F99279A838983E7
:101610008981EB81FC8180838B819C8101979C83F4
:101620008B83EB81FC8186E280838B819C81019797
:101630009C838B83EB81FC8187E280838B819C81FF
:1016400001979C838B83EB81FC8188E280838B8173
:101650009C8101979C838B83EB81FC8189E2808351
:101660008B819C8101979C838B83EB81FC8180E340
:1016700080838B819C8101979C838B83EB81FC8190
:1016800081E380838B819C8101979C838B838B81F9
:101690009C8128960FB6F894DEBF0FBECDBFCF91C8
:1016A000DF910895DF93CF93CDB7DEB70E94440C4E
:1016B000A091AD06B091AE06CD91CDBFDD91DEBF5C
:1016C000FF91EF91DF91CF91BF91AF919F918F915A
:1016D0007F916F915F914F913F912F911F910F914A
:1016E000FF90EF90DF90CF90BF90AF909F908F9042
:1016F0007F906F905F904F903F902F901F900F9032
:101700000FBE0F90089581E0CF91DF910895DF9390
:10171000CF93CDB7DEB7CF91DF9108950F920FB67B
:10172000F8940F921F9211242F923F924F925F9242
:101730006F927F928F929F92AF92BF92CF92DF92E1
:10174000EF92FF920F931F932F933F934F935F93CB
:101750006F937F938F939F93AF93BF93CF93DF93B9
:10176000EF93FF93A091AD06B091AE060DB60D922A
:101770000EB60D920E94B617A091AD06B091AE06BE
:10178000CD91CDBFDD91DEBFFF91EF91DF91CF9184
:10179000BF91AF919F918F917F916F915F914F9189
:1017A0003F912F911F910F91FF90EF90DF90CF907D
:1017B000BF90AF909F908F907F906F905F904F9071
:1017C0003F902F901F900F900FBE0F9008950F9293
:1017D0000FB6F8940F921F9211242F923F924F92BE
:1017E0005F926F927F928F929F92AF92BF92CF92B1
:1017F000DF92EF92FF920F931F932F933F934F939C
:101800005F936F937F938F939F93AF93BF93CF9388
:10181000DF93EF93FF93A091AD06B091AE060DB6A6
:101820000D920EB60D920E94CF16882311F00E94E1
:10183000B617A091AD06B091AE06CD91CDBFDD91AA
:10184000DEBFFF91EF91DF91CF91BF91AF919F915B
:101850008F917F916F915F914F913F912F911F9148
:101860000F91FF90EF90DF90CF90BF90AF909F903F
:101870008F907F906F905F904F903F902F901F9030
:101880000F900FBE0F900895DF93CF9300D000D03C
:1018900000D0CDB7DEB780E49FE1A0E0B0E08B835D
:1018A0009C83AD83BE838B819C81AD81BE81689416
:1018B00015F8B695A795979587951694D1F78B83CC
:1018C0009C83AD83BE838B819C81AD81BE8101975A
:1018D000A109B1098B839C83AD83BE838B818983EE
:1018E0008B819C81AD81BE81892F9A2FAB2FBB2725
:1018F0008B839C83AD83BE838B818A83EBE4F0E092
:101900008A818083EAE4F0E0898180838BE08983A7
:10191000EEE4F0E089818083E9E5F0E0808189836D
:10192000898180618983E9E5F0E089818083269659
:101930000FB6F894DEBF0FBECDBFCF91DF910895F3
:101940000E94E70B1895DF93CF9300D000D00F9241
:10195000CDB7DEB79C838B836D838B819C819A830B
:1019600089830FB6F8940F92E981FA814081518101
:10197000E981FA81838D282F30E0E981FA81848D15
:10198000882F90E0BC01269FC001279F900D369FB5
:10199000900D1124840F951FE981FA81938382832E
:1019A000E981FA81128EE981FA8180819181E98150
:1019B000FA8195838483E981FA8140815181E981AB
:1019C000FA81838D882F90E09C0121503040E9817D
:1019D000FA81848D882F90E0BC01269FC001279F4B
:1019E000900D369F900D1124840F951FE981FA8187
:1019F00097838683E981FA818FEF858FE981FA8168
:101A00008FEF868F8D81882379F4E981FA81808533
:101A10008823A1F089819A8108960E9497188130C5
:101A200069F40E948E0B0AC089819A8108960E94EF
:101A3000990889819A8141960E9499080F900FBE5A
:101A400081E00F900F900F900F900F90CF91DF914A
:101A50000895DF93CF93CDB7DEB729970FB6F894EB
:101A6000DEBF0FBECDBF8F83688749871A82198278
:101A70008F81882309F43FC08FE190E00E944B07DB
:101A80009E838D838D819E810097A9F18F81282F60
:101A900030E08885882F90E0AC01249FC001259F0D
:101AA000900D349F900D112401969C838B838B8124
:101AB0009C810E944B07ED81FE8191838083ED81A3
:101AC000FE8180819181009791F0ED81FE818F816F
:101AD000838FED81FE818885848F8D819E8161E079
:101AE0000E94A30C8D819E819A83898304C08D817D
:101AF0009E810E94A10789819A8129960FB6F89448
:101B0000DEBF0FBECDBFCF91DF910895DF93CF939E
:101B100000D000D0CDB7DEB78B836C838B8160E0C3
:101B200042E00E94290D9A83898389819A810097D6
:101B300021F0E981FA818C81828F89819A810F90CD
:101B40000F900F900F90CF91DF910895DF93CF9377
:101B5000CDB7DEB72F970FB6F894DEBF0FBECDBF5F
:101B6000998788877B876A875D874C872E871C8249
:101B7000888599859A8389830FB6F8940F92E981B5
:101B8000FA81928DE981FA81838D981718F08E85FC
:101B9000823011F589819A812A853B85B9014E856C
:101BA0000E947B108B83E981FA818189882351F01F
:101BB00089819A8141960E949718813041F40E9450
:101BC0008E0B05C08B81882311F00E948E0B0F9025
:101BD0000FBE81E08F875CC08C859D85009721F4C6
:101BE0000F900FBE1F8654C08C81882331F4CE0124
:101BF00005960E94671981E08C830F900FBE0E94AA
:101C000004160FB6F8940F92E981FA81858D8F3F03
:101C100019F4E981FA81158EE981FA81868D8F3F69
:101C200019F4E981FA81168E0F900FBECE01059648
:101C30009E01245F3F4FB9010E948019882309F556
:101C400089819A810E94F2118823A1F089819A8169
:101C500008962C853D85B9010E941F1889819A81BB
:101C60000E9469110E941016882309F085CF0E94F6
:101C70008E0B82CF89819A810E9469110E94101671
:101C80007BCF89819A810E9469110E9410161F865C
:101C90008F852F960FB6F894DEBF0FBECDBFCF91C4
:101CA000DF910895DF93CF93CDB7DEB72B970FB6B3
:101CB000F894DEBF0FBECDBF9E838D8378876F8380
:101CC0005A8749872B878D819E819A8389831B82BE
:101CD000E981FA81928DE981FA81838D981718F054
:101CE0008B858230B1F589819A812F813885B90140
:101CF0004B850E947B10882341F089859A85009747
:101D000021F0E985FA8581E08083E981FA81868D79
:101D10008F3FA9F4E981FA8181898823B9F089810B
:101D20009A8141960E949718882381F089859A8527
:101D3000009761F0E985FA8581E0808307C0E98139
:101D4000FA81868D8F5FE981FA81868F81E08C83AD
:101D500001C01C828C812B960FB6F894DEBF0FBE9B
:101D6000CDBFCF91DF910895DF93CF93CDB7DEB78D
:101D700060970FB6F894DEBF0FBECDBF9A878987F4
:101D80007C876B875E874D872F871D8289859A8523
:101D90009A8389830FB6F8940F92E981FA81828D34
:101DA000882309F43FC0E981FA81868197819C8369
:101DB0008B8389819A812B853C85B9010E942211F0
:101DC0008F858823B1F4E981FA81828D8150E98180
:101DD000FA81828FE981FA8180858823F1F08981F7
:101DE0009A8108960E9497188130B9F40E948E0B50
:101DF00014C0E981FA818B819C8197838683E98174
:101E0000FA818189882349F089819A8141960E94CB
:101E10009718882311F00E948E0B0F900FBE81E05F
:101E2000888B5CC08D859E85009721F40F900FBE36
:101E3000188A54C08D81882331F4CE0106960E9401
:101E4000671981E08D830F900FBE0E9404160FB6B4
:101E5000F8940F92E981FA81858D8F3F19F4E98119
:101E6000FA81158EE981FA81868D8F3F19F4E98117
:101E7000FA81168E0F900FBECE0106969E01235F4B
:101E80003F4FB9010E948019882309F589819A8101
:101E90000E94BD118823A1F089819A8141962D85E8
:101EA0003E85B9010E941F1889819A810E9469119B
:101EB0000E941016882309F06DCF0E948E0B6ACF06
:101EC00089819A810E9469110E94101663CF8981CD
:101ED0009A810E9469110E941016188A888960965A
:101EE0000FB6F894DEBF0FBECDBFCF91DF9108953E
:101EF000DF93CF93CDB7DEB72A970FB6F894DEBF46
:101F00000FBECDBF9E838D8378876F835A874987A5
:101F10008D819E819A8389831B82E981FA81828DDA
:101F2000882391F189819A812F813885B9010E9496
:101F30002211E981FA81828D8150E981FA81828FB3
:101F4000E981FA81858D8F3FA9F4E981FA81808545
:101F50008823B9F089819A8108960E94971888236E
:101F600081F089859A85009761F0E985FA8581E09D
:101F7000808307C0E981FA81858D8F5FE981FA81CD
:101F8000858F81E08C8301C01C828C812A960FB6DC
:101F9000F894DEBF0FBECDBFCF91DF910895DF93E0
:101FA000CF93CDB7DEB72A970FB6F894DEBF0FBE3A
:101FB000CDBF98878F837A8769878F8198859A8329
:101FC00089831D82E981FA81828D8823B1F0E981BC
:101FD000FA81868197819C838B8389819A81298567
:101FE0003A85B9010E942211E981FA818B819C8195
:101FF0009783868381E08E8301C01E828E812A961C
:102000000FB6F894DEBF0FBECDBFCF91DF9108951C
:10201000DF93CF9300D00F92CDB7DEB79B838A8337
:102020000FB6F8940F92EA81FB81828D89830F901D
:102030000FBE89810F900F900F90CF91DF9108957F
:10204000DF93CF9300D000D00F92CDB7DEB79D8342
:102050008C838C819D819A8389830FB6F8940F922B
:10206000E981FA81938DE981FA81828D292F281BDC
:10207000822F8B830F900FBE8B810F900F900F904C
:102080000F900F90CF91DF910895DF93CF9300D001
:102090000F92CDB7DEB79B838A83EA81FB81828D65
:1020A000898389810F900F900F90CF91DF910895D0
:1020B000DF93CF9300D000D0CDB7DEB79C838B8366
:1020C0008B819C819A838983E981FA8180819181C6
:1020D000009731F0E981FA81808191810E94A10706
:1020E00089819A810E94A1070F900F900F900F9005
:1020F000CF91DF910895DF93CF9300D000D000D02F
:10210000CDB7DEB79B838A837D836C834E83198230
:10211000EA81FB81848D882309F483C08E81882322
:1021200099F5EA81FB8164817581EA81FB81848D67
:10213000482F50E02C813D81CB01B9010E94601DE8
:10214000EA81FB8124813581EA81FB81848D882F9E
:1021500090E0820F931FEA81FB8195838483EA815B
:10216000FB8124813581EA81FB818281938128175B
:10217000390708F456C0EA81FB8180819181EA81A8
:10218000FB81958384834DC0EA81FB8166817781E1
:10219000EA81FB81848D482F50E02C813D81CB0169
:1021A000B9010E94601DEA81FB8126813781EA81A5
:1021B000FB81848D882F90E0909581959F4F820FB1
:1021C000931FEA81FB8197838683EA81FB812681C5
:1021D0003781EA81FB81808191812817390790F44A
:1021E000EA81FB8122813381EA81FB81848D882F02
:1021F00090E0909581959F4F820F931FEA81FB811C
:10220000978386838E81823061F4EA81FB81828D9F
:10221000882339F0EA81FB81828D8150EA81FB813C
:10222000828FEA81FB81828D8F5FEA81FB81828FC1
:10223000898126960FB6F894DEBF0FBECDBFCF9131
:10224000DF910895DF93CF9300D000D0CDB7DEB7F4
:102250009A8389837C836B83E981FA81848D8823C7
:1022600089F1E981FA8126813781E981FA81848DBA
:10227000882F90E0820F931FE981FA8197838683EC
:10228000E981FA8126813781E981FA81828193810E
:102290002817390740F0E981FA8180819181E9812D
:1022A000FA8197838683E981FA8146815781E981A2
:1022B000FA81848D282F30E08B819C81BA01A9019D
:1022C0000E94601D0F900F900F900F90CF91DF91A3
:1022D0000895DF93CF9300D0CDB7DEB79A8389837B
:1022E0000FB6F8940F9215C0E981FA81818988238D
:1022F000A9F089819A8141960E949718882311F04C
:102300000E94E319E981FA81868D8150E981FA8181
:10231000868FE981FA81868D181634F3E981FA8176
:102320008FEF868F0F900FBE0FB6F8940F9215C0E7
:10233000E981FA8180858823A9F089819A810896AC
:102340000E949718882311F00E94E319E981FA810D
:10235000858D8150E981FA81858FE981FA81858DAA
:10236000181634F3E981FA818FEF858F0F900FBE35
:102370000F900F90CF91DF910895DF93CF9300D00E
:102380000F92CDB7DEB79B838A830FB6F8940F9276
:10239000EA81FB81828D882319F481E0898301C061
:1023A00019820F900FBE89810F900F900F90CF91DF
:1023B000DF910895DF93CF9300D00F92CDB7DEB7B2
:1023C0009B838A83EA81FB81828D882319F481E0D3
:1023D000898301C0198289810F900F900F90CF914E
:1023E000DF910895DF93CF9300D00F92CDB7DEB782
:1023F0009B838A830FB6F8940F92EA81FB81928DBA
:10240000EA81FB81838D981719F481E0898301C0EB
:1024100019820F900FBE89810F900F900F90CF916E
:10242000DF910895DF93CF9300D00F92CDB7DEB741
:102430009B838A83EA81FB81928DEA81FB81838D74
:10244000981719F481E0898301C0198289810F905E
:102450000F900F90CF91DF910895DF93CF93CDB779
:10246000DEB72A970FB6F894DEBF0FBECDBF9D83AF
:102470008C837F836E83598748878C819D819A8363
:102480008983F89489819A810E94F2118823A9F0A6
:1024900088859985009771F089819A819C01285FD0
:1024A0003F4F88859985B9010E94C70178948CEFC8
:1024B0008A872AC078941A8627C07894F894E9818C
:1024C000FA81928DE981FA81838D9817C8F4898108
:1024D0009A812E813F81B90140E00E947B1081E00A
:1024E0008B83E981FA818189882359F089819A81D6
:1024F00041960E94D303882321F08BEF8B8301C088
:102500001B8278948B818A878A852A960FB6F894E5
:10251000DEBF0FBECDBFCF91DF910895DF93CF9384
:10252000CDB7DEB72A970FB6F894DEBF0FBECDBF8A
:102530009D838C837F836E83598748878C819D819F
:102540009A838983F894E981FA81828D8823A9F49A
:1025500088859985009771F089819A819C012F5E09
:102560003F4F88859985B9010E94C70178948CEF07
:102570008A8758C078941A8655C07894F894E9816F
:10258000FA81828D882309F449C0E981FA81268184
:102590003781E981FA81848D882F90E0820F931F23
:1025A000E981FA8197838683E981FA8126813781DF
:1025B000E981FA81828193812817390740F0E98106
:1025C000FA8180819181E981FA8197838683E9810B
:1025D000FA81828D8150E981FA81828FE981FA81C5
:1025E00046815781E981FA81848D282F30E08E81E0
:1025F0009F81BA01A9010E94601D81E08B83E9815E
:10260000FA818085882359F089819A8108960E94F1
:10261000D303882321F08BEF8B8301C01B82789436
:102620008B818A878A852A960FB6F894DEBF0FBE03
:10263000CDBFCF91DF910895DF93CF93CDB7DEB7B4
:1026400028970FB6F894DEBF0FBECDBF9C838B8357
:102650007E836D834F838B819C819A838983E981FB
:10266000FA81928DE981FA81838D9817D0F489815E
:102670009A812D813E81B90140E00E947B108F81BB
:10268000882379F4E981FA818189882351F089814D
:102690009A8141960E94D303882319F081E08887AC
:1026A00002C08F818887888528960FB6F894DEBF90
:1026B0000FBECDBFCF91DF910895DF93CF93CDB7FC
:1026C000DEB729970FB6F894DEBF0FBECDBF9D834E
:1026D0008C837F836E83598748878C819D819A8301
:1026E0008983E981FA81828D882309F450C0E981C8
:1026F000FA8126813781E981FA81848D882F90E0E3
:10270000820F931FE981FA8197838683E981FA8199
:1027100026813781E981FA818281938128173907DF
:1027200040F0E981FA8180819181E981FA81978382
:102730008683E981FA81828D8150E981FA81828FD5
:10274000E981FA8146815781E981FA81848D282FB8
:1027500030E08E819F81BA01A9010E94601DE88549
:10276000F9858081882381F4E981FA818085882335
:1027700059F089819A8108960E94D303882321F019
:10278000E885F98581E0808381E08B8301C01B822D
:102790008B8129960FB6F894DEBF0FBECDBFCF91C7
:1027A000DF910895AF92BF92CF92DF92EF92FF92A6
:1027B0000F931F93DF93CF93CDB7DEB764970FB618
:1027C000F894DEBF0FBECDBF9F838E837987688765
:1027D0005B874A873D872C870E87F88AEF86DA8ADF
:1027E000C98ABC8AAB8A8A859B8529893A89B901BD
:1027F0000E94351B9C838B838B819C81009709F4FD
:102800008DC0EB81FC812789308D8A859B8501975E
:10281000820F931F9A8389838B819C8128853985B8
:10282000EB89FC89AA85BB85B9014E859F018D0185
:102830000E94FD1989819A812E813F814C855D8599
:10284000B9010E94CF09EB81FC81918380838F8540
:102850009889009731F0EF85F8898B819C8191836D
:1028600080830FB6F8940F928091B0068F5F8093AB
:10287000B0068091AD069091AE06009769F48B8109
:102880009C819093AE068093AD068091B006813016
:10289000A9F40E94701A12C08091B406882371F4C2
:1028A000E091AD06F091AE0696898E85891730F0DD
:1028B0008B819C819093AE068093AD068091B80683
:1028C0008F5F8093B806EB81FC8196898091B30677
:1028D000891728F4EB81FC8186898093B306EB810C
:1028E000FC818689282F30E0C901880F991F880F45
:1028F000991F880F991F820F931FAC014654594F9F
:102900008B819C819C012E5F3F4FCA01B9010E94BF
:10291000D30881E08D830F900FBE02C08FEF8D83AF
:102920008D81813071F48091B406882351F0E0915B
:10293000AD06F091AE0696898E85981710F40E9428
:102940008E0B8D8164960FB6F894DEBF0FBECDBF9F
:10295000CF91DF911F910F91FF90EF90DF90CF907B
:10296000BF90AF900895DF93CF9300D000D000D0F8
:10297000CDB7DEB79C838B830FB6F8940F928B8113
:102980009C81009739F48091AD069091AE069E83AC
:102990008D8304C08B819C819E838D838D819E81DC
:1029A0009A83898389819A8102960E948309E981A9
:1029B000FA8184899589009729F089819A810C96FA
:1029C0000E94830989819A819C012E5F3F4F8DEF80
:1029D00096E0B9010E94D3088091AF068F5F809383
:1029E000AF068091B8068F5F8093B8060F900FBE38
:1029F0008091B406882399F02091AD063091AE06FF
:102A000089819A818217930719F40E948E0B07C05F
:102A10000FB6F8940F920E948F1B0F900FBE269650
:102A20000FB6F894DEBF0FBECDBFCF91DF910895F2
:102A3000DF93CF93CDB7DEB72A970FB6F894DEBFFA
:102A40000FBECDBF98878F837A8769871B820E94CC
:102A500004168091B1069091B2069A838983EF8122
:102A6000F8852081318189859A85820F931F9E8305
:102A70008D83EF81F8852081318189819A81821748
:102A8000930798F4EF81F885208131818D819E81B3
:102A900082179307E0F42D813E8189819A81821704
:102AA0009307A8F481E08B8312C0EF81F885208121
:102AB00031818D819E818217930738F02D813E816F
:102AC00089819A818217930710F481E08B83EF81CB
:102AD000F8858D819E81918380838B81882359F035
:102AE0008091AD069091AE0602960E9483098D8179
:102AF0009E810E94EC1A0E9410168C838C81882380
:102B000011F40E948E0B2A960FB6F894DEBF0FBE0A
:102B1000CDBFCF91DF910895DF93CF9300D000D048
:102B20000F92CDB7DEB79D838C8319828C819D81F6
:102B30000097D1F00E9404162091B1063091B206A0
:102B40008C819D81820F931F9B838A838091AD0628
:102B50009091AE0602960E9483098A819B810E9411
:102B6000EC1A0E94101689838981882311F40E942F
:102B70008E0B0F900F900F900F900F90CF91DF91D1
:102B80000895AF92BF92CF92DF92EF92FF920F9390
:102B9000DF93CF930F92CDB7DEB78DEE99E128E7A3
:102BA00030E0B90145E550E020E030E000E0EE24FF
:102BB000FF24CC24DD24AA24BB240E94D2138983C1
:102BC0008981813051F4F89481E08093B4061092A9
:102BD000B2061092B1060E94520B0F90CF91DF9176
:102BE0000F91FF90EF90DF90CF90BF90AF9008953E
:102BF000DF93CF93CDB7DEB7F8941092B4060E945E
:102C0000870BCF91DF910895DF93CF93CDB7DEB7D8
:102C10008091B9068F5F8093B906CF91DF910895B7
:102C2000DF93CF9300D00F92CDB7DEB719820FB6E6
:102C3000F8940F928091B90681508093B9068091E3
:102C4000B906882309F06DC08091B006882309F485
:102C500068C045C0E091F906F091FA068681978137
:102C60009B838A838A819B810C960E9483098A8137
:102C70009B8102960E948309EA81FB81968980915B
:102C8000B306891728F4EA81FB8186898093B3060D
:102C9000EA81FB818689282F30E0C901880F991FBE
:102CA000880F991F880F991F820F931FAC014654FC
:102CB000594F8A819B819C012E5F3F4FCA01B90108
:102CC0000E94D308EA81FB819689E091AD06F091DC
:102CD000AE068689981718F081E08093B606809139
:102CE000F406882309F0B6CF8091B506882389F0D1
:102CF0000CC00E94CF16882319F081E08093B6069D
:102D00008091B50681508093B5068091B5068823E1
:102D100081F78091B606813021F481E089830E9499
:102D20008E0B0F900FBE89810F900F900F90CF9157
:102D3000DF910895DF93CF9300D0CDB7DEB70FB604
:102D4000F8940F928091B1069091B2069A8389838C
:102D50000F900FBE89819A810F900F90CF91DF91D4
:102D60000895DF93CF9300D00F92CDB7DEB71982CD
:102D70008091B1069091B2069B838A838A819B8160
:102D80000F900F900F90CF91DF910895DF93CF9325
:102D9000CDB7DEB78091B006CF91DF910895DF9374
:102DA000CF93CDB7DEB729970FB6F894DEBF0FBE2D
:102DB000CDBF1D828091B906882309F0C2C08091E1
:102DC000B1069091B20601969093B2068093B10637
:102DD0008091B1069091B2069C838B838B819C81FC
:102DE0000097D9F48091F0069091F1069A83898337
:102DF0008091F2069091F3069093F1068093F0068D
:102E000089819A819093F3068093F2068091B706A8
:102E10008F5F8093B7060E948F1B20918C003091AA
:102E20008D008B819C818217930708F471C0E0911B
:102E3000F006F091F1068081882339F48FEF9FEF3F
:102E400090938D0080938C0063C0E091F006F09128
:102E5000F1060580F681E02D868197819987888724
:102E6000E885F985828193819F838E832B813C81C4
:102E70008E819F812817390738F48E819F81909326
:102E80008D0080938C0044C08885998502960E94AD
:102E90008309E885F98584899589009729F08885D3
:102EA00099850C960E948309E885F9859689809119
:102EB000B306891728F4E885F98586898093B306D7
:102EC000E885F9858689282F30E0C901880F991F88
:102ED000880F991F880F991F820F931FAC014654CA
:102EE000594F888599859C012E5F3F4FCA01B901D2
:102EF0000E94D308E885F9859689E091AD06F091A6
:102F0000AE068689981708F492CF81E08D838FCF23
:102F1000E091AD06F091AE068689282F30E0C90118
:102F2000880F991F880F991F880F991F820F931F71
:102F3000FC01E654F94F8081823040F081E08D83BE
:102F400005C08091B5068F5F8093B5068091B60667
:102F5000882311F081E08D838D8129960FB6F89436
:102F6000DEBF0FBECDBFCF91DF910895DF93CF932A
:102F700000D0CDB7DEB78091B906882321F081E07B
:102F80008093B60657C01092B60605C08091B3066E
:102F900081508093B3068091B306282F30E0C90199
:102FA000880F991F880F991F880F991F820F931FF1
:102FB000FC01E654F94F8081882341F38091B306E8
:102FC000282F30E0C901880F991F880F991F880F9B
:102FD000991F820F931F8654994F9A838983E981A1
:102FE000FA810180F281E02D82819381E981FA8169
:102FF00092838183E981FA812181328189819A8159
:1030000003962817390759F4E981FA810180F28182
:10301000E02D82819381E981FA8192838183E98124
:10302000FA810180F281E02D868197819093AE062E
:103030008093AD060F900F90CF91DF910895DF93AD
:10304000CF9300D000D000D0CDB7DEB79C838B8368
:103050007E836D838091AD069091AE069C01245FC6
:103060003F4F8B819C81B9010E9417098091AD0669
:103070009091AE0602960E9483092091B10630918C
:10308000B2068D819E81820F931F9A8389838981E5
:103090009A810E94EC1A26960FB6F894DEBF0FBEF6
:1030A000CDBFCF91DF910895DF93CF93CDB7DEB73A
:1030B00028970FB6F894DEBF0FBECDBF9C838B83DD
:1030C0007E836D8358874F83E091AD06F091AE0605
:1030D0008D819E819068958784878091AD069091BF
:1030E000AE069C01245F3F4F8B819C81B9010E94F9
:1030F000D3088091AD069091AE0602960E94830996
:103100002091B1063091B2068F819885820F931F6E
:103110009A83898389819A810E94EC1A28960FB636
:10312000F894DEBF0FBECDBFCF91DF910895DF933E
:10313000CF9300D000D00F92CDB7DEB79D838C83A4
:10314000EC81FD810580F681E02D868197819B834E
:103150008A838A819B810C960E9483098091B9069B
:10316000882361F58A819B8102960E948309EA8106
:10317000FB8196898091B306891728F4EA81FB8147
:1031800086898093B306EA81FB818689282F30E007
:10319000C901880F991F880F991F880F991F820FE7
:1031A000931FAC014654594F8A819B819C012E5F2D
:1031B0003F4FCA01B9010E94D3080AC08A819B818E
:1031C0009C01245F3F4F84EF96E0B9010E94D30831
:1031D000EA81FB819689E091AD06F091AE06868981
:1031E000891730F481E0898381E08093B60601C0BD
:1031F000198289810F900F900F900F900F90CF91AF
:10320000DF910895DF93CF93CDB7DEB727970FB641
:10321000F894DEBF0FBECDBF9D838C837F836E830A
:103220008E819F819068EC81FD8191838083EC8108
:10323000FD81868197819B838A838C819D810E94F9
:1032400083098A819B8102960E948309EA81FB811E
:1032500096898091B306891728F4EA81FB818689D3
:103260008093B306EA81FB818689282F30E0C9016B
:10327000880F991F880F991F880F991F820F931F1E
:10328000AC014654594F8A819B819C012E5F3F4F70
:10329000CA01B9010E94D308EA81FB819689E091B5
:1032A000AD06F091AE068689891730F481E08983F6
:1032B00081E08093B60601C01982898127960FB6F6
:1032C000F894DEBF0FBECDBFCF91DF910895DF939D
:1032D000CF9300D0CDB7DEB79A8389838091B706AC
:1032E000E981FA8180838091B1069091B206E981EB
:1032F000FA81928381830F900F90CF91DF9108958F
:10330000DF93CF93CDB7DEB727970FB6F894DEBF24
:103310000FBECDBF9D838C837F836E830FB6F894E1
:103320000F928091B1069091B2069A838983EC81C5
:10333000FD8190818091B706981761F0EC81FD8145
:103340002181328189819A818217930718F081E067
:103350008B832DC0EC81FD812181328189819A810D
:10336000AC01421B530B9A01EE81FF818081918158
:1033700028173907D0F4EE81FF8140815181EC811B
:10338000FD812181328189819A81B901681B790B84
:10339000CB01840F951FEE81FF81918380838C8107
:1033A0009D810E9467191B8202C081E08B830F9070
:1033B0000FBE8B8127960FB6F894DEBF0FBECDBF30
:1033C000CF91DF910895DF93CF93CDB7DEB781E042
:1033D0008093B606CF91DF910895DF93CF9300D00D
:1033E000CDB7DEB79A8389830E94AD1A8091BA0661
:1033F0008230D0F30E948E0BF7CF0F931F93DF9391
:10340000CF93CDB7DEB72A970FB6F894DEBF0FBEC5
:10341000CDBF9B838A837D836C834E8338872F83C4
:103420001A870987198221C08981482F50E0898134
:10343000282F30E08C819D81FC01E20FF31F208159
:103440008A819B81840F951FFC0179962083898155
:10345000282F30E08C819D81FC01E20FF31F8081D9
:10346000882331F089818F5F898389818431E0F2FB
:10347000EA81FB8114A68E81843010F083E08E8374
:10348000EA81FB818E81868B8A819B8102960E94D4
:10349000C3088A819B810C960E94C308EA81FB8144
:1034A0008A819B81918780878E81282F30E084E0FC
:1034B00090E0821B930BEA81FB8195878487EA81E8
:1034C000FB818A819B81938B828B2A960FB6F8941D
:1034D000DEBF0FBECDBFCF91DF911F910F91089539
:1034E000DF93CF930F92CDB7DEB7198213C08981D6
:1034F000282F30E0C901880F991F880F991F880F66
:10350000991F820F931F8654994F0E9499088981B1
:103510008F5F89838981843050F38EED96E00E941D
:10352000990887EE96E00E94990884EF96E00E9441
:1035300099088DEF96E00E9499088EED96E09093A1
:10354000F1068093F00687EE96E09093F306809361
:10355000F2060F90CF91DF910895DF93CF9300D0C3
:103560000F92CDB7DEB72EC00E9404168091FD06E3
:103570001B82882311F481E08B830E9410168B81BB
:10358000882301F50FB6F8940F92E0910207F091AD
:103590000307868197819A83898389819A8102961C
:1035A0000E9483098091B00681508093B00680917B
:1035B000AF0681508093AF060F900FBE89819A812C
:1035C0000E94791B8091AF06882371F60F900F90AF
:1035D0000F90CF91DF910895DF93CF9300D0CDB7B7
:1035E000DEB79A838983E091AD06F091AE068981BA
:1035F0009A81938382832091B1063091B2068981AA
:103600009A818217930770F48091F2069091F306E5
:103610002091AD063091AE062E5F3F4FB9010E945A
:1036200017091EC04091F0065091F1068091AD0639
:103630009091AE069C012E5F3F4FCA01B9010E94D6
:10364000170920918C0030918D0089819A81821711
:10365000930730F489819A8190938D0080938C0038
:103660000F900F90CF91DF910895DF93CF93CDB757
:10367000DEB728970FB6F894DEBF0FBECDBF9C8390
:103680008B837E836D838DE290E00E944B079A834B
:10369000898389819A81009709F18D819E810097A4
:1036A00039F48B819C810E944B0798878F8304C0DB
:1036B0008D819E8198878F83E981FA818F8198859A
:1036C000908F878BE981FA818789908D009731F4FB
:1036D00089819A810E94A1071A82198289819A811F
:1036E00028960FB6F894DEBF0FBECDBFCF91DF9105
:1036F0000895DF93CF9300D0CDB7DEB79A83898347
:10370000E981FA818789908D0E94A10789819A8138
:103710000E94A1070F900F90CF91DF910895DF9342
:10372000CF9300D0CDB7DEB7E091F006F091F1066F
:103730008081882339F48FEF9FEF90938D008093E1
:103740008C0013C0E091F006F091F1060580F6813F
:10375000E02D868197819A838983E981FA8182812C
:10376000938190938D0080938C000F900F90CF9158
:10377000DF910895DF93CF9300D0CDB7DEB7E0910E
:10378000AD06F091AE06848595859A838983A091D4
:10379000AD06B091AE06E091AD06F091AE06868919
:1037A000282F30E084E090E0821B930B1D969C93C1
:1037B0008E931C9789819A810F900F90CF91DF9102
:1037C0000895AF92BF92CF92DF92EF92FF920F9344
:1037D000DF93CF93CDB7DEB70E94561C8AE061E03D
:1037E00040E00E94290D90930707809306078CE123
:1037F0009CE160E070E044E650E020E030E001E071
:10380000EE24FF24CC24DD24AA24BB240E94D2135E
:1038100086E39CE160E070E044E650E020E030E0C8
:1038200002E0EE24FF24CC24DD24AA24BB240E9441
:10383000D2130E94C115FFCFDF93CF9300D00F9218
:10384000CDB7DEB79B838A8319820E94B31C89831C
:1038500080910607909107079E012F5F3F4FB901A6
:103860004FEF5FEF20E00E94A60DEFCFDF93CF93E5
:1038700000D00F92CDB7DEB79B838A8319828091E7
:103880000607909107079E012F5F3F4FB9014FEF49
:103890005FEF20E00E94B40E882389F380ED97E06B
:1038A0000E948C1589810E94C21CE9CFDF93CF93BF
:1038B000CDB7DEB7EAE3F0E08FEF8083E4E3F0E03A
:1038C0008FEF808380E895E20E946D1C8DE790E089
:1038D0000E94D91CCF91DF910895DF93CF9300D040
:1038E00000D0CDB7DEB79C838B838B819C81CC01CC
:1038F000A0E0B0E0880F991FAA1FBB1F880F991F77
:10390000AA1FBB1F880F991FAA1FBB1F880F991FD3
:10391000AA1FBB1F9C01AD0180E092E1AAE7B0E0C5
:10392000BC01CD010E94231DDA01C90101979A83D0
:103930008983E9E2F0E089818083E0E4F0E0898135
:103940009A81892F99278083E0E4F0E086E88083DC
:10395000EAE2F0E088E180830F900F900F900F90E3
:10396000CF91DF910895DF93CF93CDB7DEB7EBE230
:10397000F0E080818823DCF7ECE2F0E08081CF91F9
:10398000DF910895DF93CF930F92CDB7DEB7898390
:10399000EBE2F0E08081882F90E0807290700097D9
:1039A000B9F3ECE2F0E0898180830F90CF91DF9151
:1039B0000895DF93CF9300D000D0CDB7DEB79C83BE
:1039C0008B831A8219820FC029813A818B819C8155
:1039D000FC01E20FF31F80810E94C21C89819A8141
:1039E00001969A83898329813A818B819C81FC018C
:1039F000E20FF31F8081882339F70F900F900F900B
:103A00000F90CF91DF910895629FD001739FF001D5
:103A1000829FE00DF11D649FE00DF11D929FF00D5E
:103A2000839FF00D749FF00D659FF00D9927729F95
:103A3000B00DE11DF91F639FB00DE11DF91FBD0120
:103A4000CF0111240895A1E21A2EAA1BBB1BFD0170
:103A50000DC0AA1FBB1FEE1FFF1FA217B307E4076D
:103A6000F50720F0A21BB30BE40BF50B661F771FC5
:103A7000881F991F1A9469F76095709580959095A5
:103A80009B01AC01BD01CF01089597FB092E0526CE
:103A90000ED057FD04D0D7DF0AD0001C38F4509563
:103AA0004095309521953F4F4F4F5F4F0895F6F762
:103AB00090958095709561957F4F8F4F9F4F08959A
:103AC000FB01DC0102C001900D9241505040D8F73B
:063AD0000895F894FFCFF9
:103AD60051436F6E734E42005150726F644E4200F6
:103AE600496E744D6174680049444C4500537461D5
:0E3AF60072746564202E2E2E200D0A00FFFF34
:00000001FF
