:100000000C942A000C9447000C9447000C94470071
:100010000C9447000C9447000C9447000C94F30B8D
:100020000C9447000C9447000C9447000C94470034
:100030000C9447000C9447000C9447000C94470024
:100040000C940C150C9447000C9447000C9447003A
:100050000C94470011241FBECFE5D8E0DEBFCDBF12
:1000600012E0A0E6B0E0E4E4FCE302C005900D92EB
:10007000A832B107D9F716E0A8E2B2E001C01D929C
:10008000A43DB107E1F70E94E01C0C94201E0C94E3
:100090000000EF92FF920F931F937B018C0120E0F1
:1000A00030E040E05FE40E94CB0288238CF0C8017E
:1000B000B70120E030E040E05FE40E94C1010E940F
:1000C00059039B01AC01205030404040504806C0CD
:1000D000C801B7010E9459039B01AC01B901CA01D3
:1000E0001F910F91FF90EF900895A0E0B0E0EBE733
:1000F000F0E00C94E01DDC012B01FA019C919230A0
:1001000008F439C1EB018881823008F433C194309E
:1001100069F4843009F02FC111969C91119789815F
:10012000981709F428C1A3E0B1E025C1843009F48F
:1001300021C18230A9F4923009F01DC19A01AD01AC
:1001400088E0EA010990AE01E90109929E0181501F
:10015000C1F7E201898111969C918923818308C1AD
:10016000923009F407C112962D903C901397EB0141
:100170008A819B811496AD90BD90CD90DC901797AD
:10018000EC80FD800E811F819101281B390BB90184
:1001900037FF04C066277727621B730B6032710537
:1001A0000CF061C0121613066CF537014801062EDB
:1001B00004C096948794779467940A94D2F721E0C8
:1001C00030E040E050E004C0220F331F441F551FB1
:1001D0006A95D2F721503040404050402E213F21B7
:1001E00040235123211531054105510521F021E01E
:1001F00030E040E050E079018A01E628F72808293C
:1002000019293CC0232BD1F1260E371E350146019A
:10021000062E04C096948794779467940A94D2F734
:1002200021E030E040E050E004C0220F331F441FC3
:10023000551F6A95D2F721503040404050402A2146
:100240003B214C215D21211531054105510521F04E
:1002500021E030E040E050E059016A01A628B728CB
:10026000C828D9280BC0821593052CF01C01AA249C
:10027000BB24650103C0EE24FF24870111969C91E5
:10028000D20111968C91981709F445C0992339F041
:10029000A80197012A193B094C095D0906C0A6016E
:1002A00095012E193F09400B510B57FD08C01182D3
:1002B0003382228224833583468357831DC081E0A5
:1002C00081833382228288279927DC01821B930B4A
:1002D000A40BB50B84839583A683B7830DC0220F2F
:1002E000331F441F551F24833583468357838281E0
:1002F000938101979383828324813581468157813D
:10030000DA01C9010197A109B1098F5F9F4FAF4F72
:10031000BF4328F30BC0918333822282EA0CFB1C7B
:100320000C1D1D1DE482F5820683178383E0808304
:10033000248135814681578157FF1AC0C901AA27F8
:1003400097FDA095BA2F81709070A070B0705695EF
:10035000479537952795822B932BA42BB52B848318
:100360009583A683B7838281938101969383828349
:10037000DF0101C0D201CD01CDB7DEB7E2E10C94BF
:10038000FC1DA0E2B0E0E7ECF1E00C94EC1D698309
:100390007A838B839C832D833E834F835887E9E048
:1003A000EE2EF12CEC0EFD1ECE010196B7010E943F
:1003B000D1048E010F5E1F4FCE010596B8010E9439
:1003C000D1048A8991E089278A8BC701B801AE01DF
:1003D000475E5F4F0E9475000E94FC03A096E6E016
:1003E0000C94081EA0E2B0E0E8EFF1E00C94EC1DE4
:1003F00069837A838B839C832D833E834F835887C5
:10040000F9E0EF2EF12CEC0EFD1ECE010196B701A6
:100410000E94D1048E010F5E1F4FCE010596B801D8
:100420000E94D104C701B801AE01475E5F4F0E9430
:1004300075000E94FC03A096E6E00C94081EA8E15B
:10044000B0E0E5E2F2E00C94E81D69837A838B83E7
:100450009C832D833E834F835887B9E0EB2EF12C8C
:10046000EC0EFD1ECE010196B7010E94D1048E0153
:100470000F5E1F4FCE010596B8010E94D104298559
:10048000223008F47EC03989323010F4B8017CC0C3
:100490008A859A8989278A87243011F0223031F49D
:1004A000231709F06EC063E071E06EC0343039F498
:1004B0001D861E861F86188A1C861B8604C0323045
:1004C00021F484E08987B7015FC02B853C858B8947
:1004D0009C89281B390B3C872B87ED84FE840F8574
:1004E0001889AD88BE88CF88D88CEA14FB040C0527
:1004F0001D0540F4EE0CFF1C001F111F2150304061
:100500003C872B8720E030E040E050E080E090E046
:10051000A0E0B0E460E070E0EA14FB040C051D0507
:1005200040F0282B392B4A2B5B2BEA18FB080C09CF
:100530001D09B695A79597958795EE0CFF1C001F92
:10054000111F6F5F7F4F6F31710531F7DA01C901FC
:100550008F779070A070B07080349105A105B105BF
:1005600061F427FD0AC0E114F1040105110529F029
:10057000205C3F4F4F4F5F4F20782D873E874F873E
:10058000588BBE01675F7F4FCB010E94FC036896CA
:10059000EAE00C94041EA8E1B0E0E1EDF2E00C9476
:1005A000EC1D69837A838B839C832D833E834F83E9
:1005B000588789E0E82EF12CEC0EFD1ECE01019645
:1005C000B7010E94D1048E010F5E1F4FCE01059628
:1005D000B8010E94D1048985823040F08989823037
:1005E00028F0C701B8010E94490501C08FEF689645
:1005F000E6E00C94081EA8E0B0E0E1E0F3E00C9423
:10060000E91D9B01AC0183E08983DA01C9018827D8
:10061000B7FD83959927AA27BB27B82E2115310549
:100620004105510519F482E089833AC08823A9F075
:10063000203080E0380780E0480780E8580729F438
:1006400060E070E080E09FEC30C0EE24FF24870182
:10065000E21AF30A040B150B02C079018A018EE13C
:10066000C82ED12CDC82CB82ED82FE820F831887CC
:10067000C801B7010E94AD0301971816190684F44A
:10068000082E04C0EE0CFF1C001F111F0A94D2F7A5
:10069000ED82FE820F831887C81AD90ADC82CB82CA
:1006A000BA82CE0101960E94FC032896E9E00C94E0
:1006B000051EACE0B0E0EFE5F3E00C94F01D6983BB
:1006C0007A838B839C83CE010196BE016B5F7F4F43
:1006D0000E94D1048D81823061F1823050F18430EA
:1006E00021F48E81882351F12EC02F81388537FD6A
:1006F00020C06E812F3131051CF06623F9F023C034
:100700008EE190E0821B930B29853A854B855C85B1
:1007100004C056954795379527958A95D2F7662355
:10072000B1F050954095309521953F4F4F4F5F4F19
:100730000EC020E030E040E050E009C02FEF3FEF76
:100740004FEF5FE704C020E030E040E050E8B9013F
:10075000CA012C96E2E00C940C1EEF92FF920F93CC
:100760001F937B018C0180E0E81680E0F80681E0B1
:10077000080780E0180788F48FEFE816F1040105F8
:10078000110531F028F088E090E0A0E0B0E017C05B
:1007900080E090E0A0E0B0E012C080E0E81680E0E9
:1007A000F80680E0080781E0180728F088E190E06B
:1007B000A0E0B0E004C080E190E0A0E0B0E020E282
:1007C00030E040E050E0281B390B4A0B5B0B04C0C3
:1007D00016950795F794E7948A95D2F7F701E55FA8
:1007E000FE4F8081281B310941095109C9011F9120
:1007F0000F91FF90EF900895DF92EF92FF920F9389
:100800001F93FC01E480F58006811781D1808081EF
:10081000823048F480E090E0A0E1B0E0E82AF92AD4
:100820000A2B1B2BA5C0843009F49FC0823021F411
:10083000EE24FF24870105C0E114F1040105110530
:1008400019F4E0E0F0E096C0628173819FEF6238B6
:1008500079070CF05BC022E83FEF261B370B2A31EB
:1008600031052CF020E030E040E050E02AC0B80133
:10087000A701022E04C076956795579547950A946F
:10088000D2F781E090E0A0E0B0E004C0880F991FAB
:10089000AA1FBB1F2A95D2F70197A109B1098E2182
:1008A0009F21A023B1230097A105B10521F081E08C
:1008B00090E0A0E0B0E09A01AB01282B392B4A2B45
:1008C0005B2BDA01C9018F779070A070B070803413
:1008D0009105A105B10539F427FF09C0205C3F4F00
:1008E0004F4F5F4F04C0215C3F4F4F4F5F4FE0E0E1
:1008F000F0E02030A0E03A07A0E04A07A0E45A0761
:1009000010F0E1E0F0E079018A0127C0603871055C
:1009100064F5FB01E158FF4FD801C7018F77907054
:10092000A070B07080349105A105B10539F4E7FEDF
:100930000DC080E490E0A0E0B0E004C08FE390E060
:10094000A0E0B0E0E80EF91E0A1F1B1F17FF05C04C
:1009500016950795F794E794319687E016950795D5
:10096000F794E7948A95D1F705C0EE24FF24870118
:10097000EFEFF0E06E2F679566276795902F9F77D2
:10098000D794DD24D7948E2F8695492F462B582F48
:100990005D29B701CA011F910F91FF90EF90DF9081
:1009A0000895FC01DB01408151812281622F6F7724
:1009B00070E0221F2227221F9381892F880F822B0C
:1009C000282F30E0991F9927991F11969C93119712
:1009D00021153105A9F5411551056105710511F480
:1009E00082E037C082E89FEF13969C938E93129714
:1009F0009A01AB0167E0220F331F441F551F6A9510
:100A0000D1F783E08C930DC0220F331F441F551F75
:100A100012968D919C911397019713969C938E93A8
:100A20001297203080E0380780E0480780E45807BC
:100A300058F314962D933D934D935C931797089517
:100A40002F3F310579F4411551056105710519F400
:100A500084E08C93089564FF03C081E08C9312C0FE
:100A60001C9210C02F57304013963C932E93129730
:100A700083E08C9387E0440F551F661F771F8A958C
:100A8000D1F7706414964D935D936D937C93179793
:100A900008951F93DC01FB019C91923008F447C03C
:100AA0008081823008F443C0943051F411961C9137
:100AB000843099F58181682F70E0611B71093FC016
:100AC000843021F0923031F48230B9F18181882371
:100AD00089F12DC011961C9111978230F1F081811E
:100AE0001817D9F412962D913C9113978281938116
:100AF0008217930794F028173907BCF014968D914C
:100B00009D910D90BC91A02D248135814681578106
:100B1000281739074A075B0718F4112341F00AC068
:100B200082179307A407B50740F4112319F061E079
:100B300070E005C06FEF7FEF02C060E070E0CB01B6
:100B40001F91089580912802882321F08091290225
:100B5000811181E0109228021092290208958F924B
:100B60009F92AF92BF92CF92DF92EF92FF920F933C
:100B70001F93182F8AE062E040E00E9419109093C2
:100B80002B0280932A028AE2882E82E0982E87E246
:100B900096E060E670E045E550E09401012FEE2418
:100BA000FF24CC24DD24AA24BB240E9497138BEEBF
:100BB00095E068E670E045E550E094010E949713E7
:100BC0001F910F91FF90EF90DF90CF90BF90AF906B
:100BD0009F908F900895CF92DF92EF92FF920F93A4
:100BE0001F93DF93CF9300D0CDB7DEB77C011A827D
:100BF000198200E010E06E010894C11CD11C1FC0D6
:100C0000F70180819181B60140E050E020E00E9430
:100C10002C0F813011F001E011C0002351F40FB608
:100C2000F8940F92809129028F5F809329020F9090
:100C30000FBE89819A8101969A8389831F5F133041
:100C4000FCF288EC90E00E94321310E0D9CF9F9222
:100C5000AF92BF92CF92DF92EF92FF920F931F93CA
:100C6000DF93CF9300D0CDB7DEB7982EC92EEE24F8
:100C7000FF24DD245E010894A11CB11C23C0F801EF
:100C800080819181B50140E050E020E00E94790E22
:100C90008130C1F429813A812E153F0519F0DD24F8
:100CA000D3940CC0DD2051F40FB6F8940F928091CC
:100CB00028028F5F809328020F900FBE790108945D
:100CC000E11CF11C092D1C2DF801808191810E94ED
:100CD0004F0C8823A1F684EB90E00E943213F2CFF0
:100CE000EF92FF920F931F93DC011596ED91FC910B
:100CF0001697E680F7808701045F1F4FC8010E94A6
:100D0000EE0A8DE592E0B8010E949D0A20E0E09194
:100D10002C02F0912D02D70156969C918689981746
:100D200008F021E0822F1F910F91FF90EF9008951E
:100D3000FF920F931F93CF93DF9399E0F92E21C079
:100D4000F894E0916202F091630206811781C80174
:100D50000C960E94EE0A7894E8012296CE010E9439
:100D6000EE0AF801968980912E02891710F490936B
:100D70002E029F9DC00111248B5C9D4FBE010E94DD
:100D80009D0A80915D028823D9F60E944B10209124
:100D90002F0230913002821B930B9093320280938A
:100DA000310289E0F82E53C001969093340280936B
:100DB0003302215030403093320220933102892B8C
:100DC00009F03EC02091590230915A0280915B0295
:100DD00090915C0290935A028093590230935C0286
:100DE00020935B022DC00580F681E02DC681D7815E
:100DF00020913302309134028A819B812817390770
:100E000030F1F8948E010E5F1F4FC8010E94EE0A68
:100E10008C899D89892B21F0CE010C960E94EE0AC7
:100E200078949E8980912E02891710F490932E0257
:100E30009F9DC00111248B5C9D4FB8010E949D0AAB
:100E4000E0915902F0915A028081882361F6209145
:100E50003102309132028091330290913402211597
:100E6000310509F0A1CF9093300280932F02909129
:100E70002E0229E006C0992319F410922E0232C0E6
:100E80009150929FD0011124AB5CBD4F8C9188236F
:100E900091F390932E021196ED91FC91129702809E
:100EA000F381E02D1296FC93EE931197CD010396FA
:100EB000E817F90731F48281938112969C938E93FF
:100EC00011971196ED91FC9112970680F781E02D14
:100ED000F0932D02E0932C0220813181CF016789AC
:100EE000F9010995DF91CF911F910F91FF9008951E
:100EF0000F931F93CF93DF93EB0100913302109177
:100F00003402080F191F80912C0290912D02029635
:100F10000E94EE0AE0912C02F0912D0213830283CD
:100F20008091330290913402BF016E5F7F4F0817AA
:100F3000190728F480915B0290915C0204C08091B3
:100F4000590290915A020E94BC0A209749F0609180
:100F50002C0270912D02645F7F4FCE010E94BC0A6B
:100F6000DF91CF911F910F910895AF92BF92CF92D1
:100F7000DF92EF92FF920F931F93CF93DF936C0159
:100F8000B62EA42E8AE190E00E94D009EC010097D1
:100F900011F48FEF59C080912C0290912D02892B72
:100FA00021F5D0932D02C0932C0285E392E00E949C
:100FB000890A8EE392E00E94890A27E4E22E22E069
:100FC000F22EC7010E94890A00E512E0C8010E94C2
:100FD000890A8DE592E00E94890AF0925A02E09215
:100FE000590210935C0200935B02EB2CBB2011F0C2
:100FF000EE24E394198E188EEE8AAF8AFE01C19218
:10100000D1928F01CF010E94990ACE010C960E94C5
:10101000990AD987C887DB8BCA8B82E090E08E194A
:1010200091099D878C879E8980912E02891710F4E3
:1010300090932E0289E0989FC00111248B5C9D4FF4
:10104000B8010E949D0A81E0DF91CF911F910F911D
:10105000FF90EF90DF90CF90BF90AF900895FC018C
:101060000FB6F8940F9220813181609570956223BC
:101070007323718360830F900FBEC9010895FC0133
:10108000808191810895BA010E942F080895CF931D
:10109000DF93EC010E94451006C08F81988560E0C7
:1010A00072E00E9402118A818823B9F7CE010E9462
:1010B000C0090E94B812DF91CF910895CF92DF92BC
:1010C000EF92FF920F931F93CF93DF938B01EC016D
:1010D00085E0E82EF12CEC0EFD1E0E944510EF81FC
:1010E000F88588819981802B912B9983888300E0F2
:1010F00010E024C0D280C38080819181BC016070E7
:10110000AC0150702881398192FD05C0242335231C
:10111000232B31F40FC0242335232417350751F432
:1011200070FF02C0042B152B688179817260CF019A
:101130000E9402118D2D9C2D9C01F901EE15FF05D9
:10114000C9F6009510958881998180239123998310
:1011500088830E94B81288819981DF91CF911F9175
:101160000F91FF90EF90DF90CF900895BA010E9409
:101170005E080895AF92BF92CF92DF92EF92FF92F6
:101180000F931F93CF93DF937B01A42EB22E6801A0
:101190008C010E944510F80120813181C701822312
:1011A0009323BB2021F4892B09F05AC004C08E156B
:1011B0009F0509F455C0C114D10459F4E9011BC0BD
:1011C000C7018095909582239323F80191838083B2
:1011D0004AC0AA2019F060E071E002C060E070E04F
:1011E000B11074606E297F29C8010296A6010E9481
:1011F0007712C0E0D0E00E94B812CD2829F18823F0
:1012000011F40E94F60B0E94EA1091FD1BC00FB66C
:10121000F8940F92F8018081918197012823392356
:10122000BB2019F4232B19F50BC02E153F0541F4F3
:101230001EC0E094F094E822F922F801F182E082E5
:101240000F900FBEEC01D070CE01DF91CF911F91B6
:101250000F91FF90EF90DF90CF90BF90AF900895E7
:10126000AA2009F0ADCFE901CC24DD24C4CFAA2007
:1012700001F7E6CF8F929F92AF92BF92CF92DF920B
:10128000EF92FF920F931F93CF93DF93F82EE92EE7
:101290008B015A014901C82ED92E0E944510F60132
:1012A000C081D1818F2D9E2DB8010E945E08C02B78
:1012B000D12BC5018C239D238A159B0569F49501CB
:1012C00020953095F601808191818223932391832B
:1012D00080838824992410C08114910451F0B501B1
:1012E0007560C6010296A4010E947712C0E0D0E0AA
:1012F00003C0F601C081D1810E94B8128928F9F09B
:10130000882311F40E94F60B0E94EA109C0191FDC3
:1013100014C00FB6F8940F92F60120813181C501F7
:10132000822393238A159B0531F4A094B094A222C2
:10133000B322B182A0820F900FBEE901D070CE011E
:10134000DF91CF911F910F91FF90EF90DF90CF90A1
:10135000BF90AF909F908F900895CF93DF938BE0D5
:1013600090E00E94D009EC01009731F0FC0111924D
:101370001192CF010E94890ACE01DF91CF91089589
:1013800008951092670210926602089527EE33E0E6
:101390008091660290916702281B390BC90108955C
:1013A000CF93DF93EC010E944510809168029091E9
:1013B0006902892B31F48BE692E090936902809365
:1013C00068022091660230916702CE01820F931F5E
:1013D00043E0873E940770F42817390758F4C0910A
:1013E0006802D0916902C20FD31F90936702809365
:1013F000660202C0C0E0D0E00E94B812CE01DF91C8
:10140000CF9108959F92AF92BF92CF92DF92EF92C9
:10141000FF920F931F93DF93CF9300D000D0CDB7EF
:10142000DEB78C01EE24FF249BE7A92EB12CC12C42
:10143000D12C9924939403C081E0E82EF12CA98249
:10144000BA82CB82DC8289819A81AB81BC81895B43
:101450009B46AC4FBF4F89839A83AB83BC83698122
:101460007A818B819C812DEF3FEF4FEF5FEF0E94E0
:10147000841D69837A838B839C8369817A818B81C4
:101480009C8127E030E040E050E00E94C51DC9018A
:10149000DA0189839A83AB83BC8389819A81AB818A
:1014A000BC818B519747AE4FBF4F31F6E114F10429
:1014B00009F0C2CF0FB6F8940F92F80190820F9006
:1014C0000FBEBDCF8091520610925206811181E06D
:1014D0000895AF92BF92CF92DF92EF92FF920F9357
:1014E000082F82E09AE060E770E045E550E022E5F1
:1014F00036E0EE24FF24CC24DD24AA24BB240E9461
:1015000097130F91FF90EF90DF90CF90BF90AF9027
:101510000895FC019C012D5F3F4F328321838FEFA3
:101520009FEF9483838336832583308727831082BC
:101530000895FC01118610860895AC01FC01A1817B
:10154000B281FB01B383A28314968D919C91159770
:10155000958384831496ED91FC9115977383628330
:1015600015967C936E931497FB0151874087FA017F
:1015700080818F5F80830895CF93DF939C01EB017F
:10158000488159818FEF4F3F580721F4F901A78116
:10159000B0850DC0D90113961296ED91FC91139769
:1015A000808191814817590710F0DF01F5CF12961D
:1015B000ED91FC911397FB83EA83D583C483BD83AC
:1015C000AC831396DC93CE93129739872887F90161
:1015D00080818F5F8083DF91CF910895CF93DF93D8
:1015E000DC011896CD91DC91199712964D915C9182
:1015F000139714968D919C911597FA019583848386
:1016000014962D913C911597F9015383428389815A
:101610009A818A179B0711F43A83298319961C92A1
:101620001E921897888181508883DF91CF91089509
:10163000FC0191E1908322E2229383E382936293FF
:101640007293129280E88293129282E0829383E0F6
:10165000829384E0829385E0829386E0829387E0A0
:10166000829388E0829389E0829380E182939293CF
:1016700082E1829383E1829384E1829385E1829384
:1016800086E1829387E1829388E1829389E1829364
:1016900080E2829381E28293229383E28293429357
:1016A000529386E2829387E2829388E2829389E270
:1016B000829380E3829381E382933197CF010895EF
:1016C0001BBC8CE78ABD8BE08EBD89B7806189BF6A
:1016D000A0915306B0915406CD91CDBFDD91DEBFF0
:1016E000FF91EF91DF91CF91BF91AF919F918F913A
:1016F0007F916F915F914F913F912F911F910F912A
:10170000FF90EF90DF90CF90BF90AF909F908F9021
:101710007F906F905F904F903F902F901F900F9011
:101720000FBE0F90089581E0089508950F920FB6AF
:10173000F8940F921F9211242F923F924F925F9232
:101740006F927F928F929F92AF92BF92CF92DF92D1
:10175000EF92FF920F931F932F933F934F935F93BB
:101760006F937F938F939F93AF93BF93CF93DF93A9
:10177000EF93FF93A0915306B09154060DB60D92CE
:101780000EB60D920E947611882311F00E945F1010
:10179000A0915306B0915406CD91CDBFDD91DEBF2F
:1017A000FF91EF91DF91CF91BF91AF919F918F9179
:1017B0007F916F915F914F913F912F911F910F9169
:1017C000FF90EF90DF90CF90BF90AF909F908F9061
:1017D0007F906F905F904F903F902F901F900F9051
:1017E0000FBE0F9008950E94960B18950F920FB69A
:1017F000F8940F921F9211242F923F924F925F9272
:101800006F927F928F929F92AF92BF92CF92DF9210
:10181000EF92FF920F931F932F933F934F935F93FA
:101820006F937F938F939F93AF93BF93CF93DF93E8
:10183000EF93FF93A0915306B09154060DB60D920D
:101840000EB60D920E945F10A0915306B0915406FF
:10185000CD91CDBFDD91DEBFFF91EF91DF91CF91B3
:10186000BF91AF919F918F917F916F915F914F91B8
:101870003F912F911F910F91FF90EF90DF90CF90AC
:10188000BF90AF909F908F907F906F905F904F90A0
:101890003F902F901F900F900FBE0F9008950FB69E
:1018A000F8940F92FC01828D0F900FBE0895FC01F9
:1018B0000FB6F8940F92928D0F900FBE838D891BF7
:1018C0000895FC01828D0895FC01828D90E08823AB
:1018D00009F491E0892F0895FC01928D20E0838D19
:1018E000981709F421E0822F08951F93CF93DF9377
:1018F000EC01142F4C8D4423E1F11123B1F48C81C0
:101900009D8150E00E94171E8C8D2C813D81280FF7
:10191000311D3D832C838A819B812817390748F12B
:10192000888199819D838C8324C08E819F8150E022
:101930000E94171E8C8D90E044275527481B590B99
:101940008E819F81840F951F9F838E83288139818B
:101950008217930730F48A819B81840F951F9F83A0
:101960008E83123031F48A8D882319F08A8D81504C
:101970008A8F8A8D8F5F8A8F80E0DF91CF911F9150
:101980000895FC01562FA72F248D2223B9F08681BC
:101990009781820F911D97838683228133818217DD
:1019A000930720F08081918197838683448D66819F
:1019B0007781852F9A2F50E00E94171E08950F936C
:1019C0001F93CF93DF93EC018A8D882341F00E8122
:1019D0001F81CE010E94C10C1F830E8381E0DF9125
:1019E000CF911F910F9108950F931F93CF93DF9382
:1019F000FB018A01EC018A8D882361F18C8D2E8197
:101A00003F81280F311D3F832E838A819B812817B8
:101A1000390720F0888199819F838E838A8D815038
:101A20008A8F4C8D6E817F81CF0150E00E94171EFE
:101A3000F8018081882369F48885882351F0CE01DC
:101A400008960E947006882321F081E0F8018083C7
:101A500001C081E0DF91CF911F910F9108951F93F5
:101A6000CF93DF93142FEC019A8D8B8D981788F408
:101A7000CE0140E00E94750C112359F48989882316
:101A800041F0CE0141960E947006482F811141E03D
:101A9000142F812FDF91CF911F910895CF93DF9362
:101AA000FB01EC01F8948A8D882371F441155105EE
:101AB00041F06196CA01BE010E94780778948CEFCC
:101AC0002FC0789480E02CC07894F8948A8D882375
:101AD00031F18C8D2E813F81280F311D3F832E8364
:101AE0008A819B812817390720F0888199819F83FB
:101AF0008E838A8D81508A8F4C8D6E817F81CF013C
:101B000050E00E94171E8885882341F0CE01089678
:101B10000E947006882311F08BEF01C081E0789459
:101B2000DF91CF910895CF93DF93EC01F8940FB636
:101B3000F8940F928A8D9B8D0F900FBE891771F4C8
:101B40004115510541F02896CA01BE010E9478074F
:101B500078948CEF1BC0789480E018C07894F89447
:101B60008A8D891710F080E010C0CE0140E00E94FD
:101B7000750C8989882341F0CE0141960E94700638
:101B8000882311F08BEF01C081E07894DF91CF9131
:101B90000895CF93DF93EC0188819981009711F02C
:101BA0000E94C009CE010E94C009DF91CF91089523
:101BB0000F931F93CF93DF938A01EC018A8D8823C3
:101BC000E9F0CE010E94C10C8A8D81508A8F8D8DE3
:101BD0008F3F81F48885882381F0CE0108960E948A
:101BE0003611882351F00115110539F081E0F80113
:101BF000808304C08D8D8F5F8D8F81E0DF91CF91C9
:101C00001F910F9108950F931F93CF93DF938A0134
:101C1000EC019A8D8B8D981720F0223011F080E026
:101C200023C0CE01422F0E94750C882331F001158C
:101C3000110519F081E0F80180838E8D8F3F81F4CA
:101C40008989882381F0CE0141960E94361188232C
:101C500051F00115110539F081E0F801808304C0CD
:101C60008E8D8F5F8E8F81E0DF91CF911F910F91CD
:101C700008950F931F93CF93DF93EC010FB6F89461
:101C80000F928C010F5E1F4F0DC08989882369F068
:101C9000C8010E943611882311F00E94E6108E8D33
:101CA00081508E8F8E8D181684F38FEF8E8F0F904C
:101CB0000FBE0FB6F8940F928E01085F1F4F0DC034
:101CC0008885882369F0C8010E943611882311F0A5
:101CD0000E94E6108D8D81508D8F8D8D181684F3A6
:101CE0008FEF8D8F0F900FBEDF91CF911F910F91CE
:101CF00008957F928F929F92AF92BF92CF92DF9280
:101D0000EF92FF920F931F93DF93CF9300D000D0F9
:101D10000F92CDB7DEB75B015D834C83722E8C01D1
:101D200091E1C92ED12CC00ED11E20E07E01089475
:101D3000E11CF11C84E0882E912C8C0E9D1E01C0AC
:101D400021E00FB6F8940F92F801828D882339F1C3
:101D5000E680F780C801B5010E94C10C772071F4BC
:101D6000F801828D8150828F80858823A1F0C8017F
:101D700008960E943611813071F40BC0F801F78289
:101D8000E6828189882339F0C6010E9436118823B2
:101D900011F00E94F60B0F900FBE81E04AC08C81BB
:101DA0009D81892B19F40F900FBE42C0222319F494
:101DB000C7010E94A8100F900FBE0E9445100FB6D9
:101DC000F8940F92F801858D8F3F09F4158EF80174
:101DD000868D8F3F09F4168E0F900FBEC701B40198
:101DE0000E94B3108823F9F40FB6F8940F92F8010B
:101DF000828D0F900FBE882381F46C817D81C60196
:101E00000E949B12C8010E94390E0E94B8128823BA
:101E100009F096CF0E94F60B93CFC8010E94390EAD
:101E20000E94B8128DCFC8010E94390E0E94B812CC
:101E300080E00F900F900F900F900F90CF91DF9157
:101E40001F910F91FF90EF90DF90CF90BF90AF90D8
:101E50009F908F907F9008956F927F929F92AF9204
:101E6000BF92CF92DF92EF92FF920F931F93DF9377
:101E7000CF9300D000D00F92CDB7DEB76B015D835A
:101E80004C83922E8C0148E0E42EF12CE80EF91ED2
:101E900020E05E010894A11CB11C34E0632E712C7B
:101EA0006C0E7D1E01C021E00FB6F8940F92F80170
:101EB000928D838D981718F0F2E09F16C9F4C8012F
:101EC000B601492D0E94750C982FF801818988234D
:101ED00039F0C80141960E943611813029F402C0C0
:101EE000992311F00E94F60B0F900FBE81E04CC0B9
:101EF0008C819D81892B19F40F900FBE44C0222341
:101F000019F4C5010E94A8100F900FBE0E94451041
:101F10000FB6F8940F92F801858D8F3F09F4158E56
:101F2000F801868D8F3F09F4168E0F900FBEC50104
:101F3000B3010E94B310882309F50FB6F8940F92ED
:101F4000F801928D0F900FBEF801838D981781F4E0
:101F50006C817D81C7010E949B12C8010E94390ECD
:101F60000E94B812882309F09ECF0E94F60B9BCFE7
:101F7000C8010E94390E0E94B81295CFC8010E9474
:101F8000390E0E94B81280E00F900F900F900F90C2
:101F90000F90CF91DF911F910F91FF90EF90DF9005
:101FA000CF90BF90AF909F907F906F900895CF9308
:101FB000DF93EC010FB6F8940F92EC8D2B8DE29F1E
:101FC000C001112448815981840F951F9B838A8306
:101FD0001A8E5D834C8330E021503040F0E02E9F1C
:101FE000C0012F9F900D3E9F900D1124480F591F47
:101FF0005F834E838FEF8D8F8E8F662361F488858C
:10200000882389F0CE0108960E943611813059F458
:102010000E94F60B08C0CE0108960E94890ACE01E4
:1020200041960E94890A0F900FBE81E0DF91CF9107
:1020300008950F931F93CF93DF93182F062F8823B4
:10204000E1F08FE190E00E94D009EC010097A9F047
:10205000019FC001112401960E94D00999838883B1
:10206000009741F01B8F0C8FCE0161E00E94D70FCB
:102070009E0105C0CE010E94C00920E030E0C901E8
:10208000DF91CF911F910F91089580915A068F5F34
:1020900080935A0608950FB6F8940F922091560631
:1020A000309157060F900FBEC90108952091560632
:1020B00030915706C901089580915C06089580917A
:1020C0005A06882321F081E08093550608951092E6
:1020D000550605C08091590681508093590680911C
:1020E000590690E0FC0123E0EE0FFF1F2A95E1F76F
:1020F000E80FF91FE15AF94F8081882359F3909135
:10210000590689E0989FD0011124A15AB94F119620
:10211000ED91FC9112970280F381E02D1296FC93D1
:10212000EE931197CD010396E817F90731F48281F8
:10213000938112969C938E9311971196ED91FC9139
:102140001297868197819093540680935306089541
:10215000FC01809158068083809156069091570625
:10216000928381830895FC01DB010FB6F8940F92EE
:1021700040915606509157069091580680819817C5
:1021800029F08181928148175907E0F42181328139
:102190006D917C911197CA01821B930B861797074B
:1021A00088F4241B350B260F371F2D933C93809109
:1021B00058068083809156069091570692838183BA
:1021C00080E001C081E00F900FBE089581E0809310
:1021D00055060895E0915306F0915406848595853F
:1021E000A0915306B0915406E0915306F091540625
:1021F000468927E030E0241B31091D963C932E933D
:102200001C9708950F931F93CF93DF93FC01706881
:1022100071836083C681D7810E94EE0A8E010E5FB2
:102220001F4FC8010E94EE0A9E89809159068917A6
:1022300010F49093590689E0989FC0011124815AA7
:10224000994FB8010E949D0AE0915306F0915406FF
:102250009E898689891710F080E003C081E0809311
:102260005506DF91CF911F910F9108950F931F9302
:10227000CF93DF93DC011596ED91FC911697C68103
:10228000D7818E01045F1F4FC8010E94EE0A809122
:102290005A068823A1F48E010E5F1F4FC8010E94C9
:1022A000EE0A9E8980915906891710F49093590679
:1022B00089E0989FC0011124815A994F02C084EB94
:1022C00096E0B8010E949D0AE0915306F0915406F1
:1022D0009E898689891710F080E003C081E0809391
:1022E0005506DF91CF911F910F910895CF92DF9204
:1022F000EF92FF920F931F93CF93DF9380915A0633
:10230000882309F0A7C08091560690915706019640
:102310009093570680935606E0905606F090570625
:10232000E114F10479F52091B0063091B106809165
:10233000B2069091B3069093B1068093B0063093A5
:10234000B3062093B206809158068F5F809358069B
:10235000E091B006F091B1068081882319F48FEFE7
:102360009FEF0CC0E091B006F091B1060580F681B8
:10237000E02D0680F781E02D8281938190930C02FD
:1023800080930B0280910B0290910C02E816F906E3
:1023900008F449C0DD2449E0C42EE091B006F09174
:1023A000B1068081882319F48FEF9FEF0EC0E09172
:1023B000B006F091B1060580F681E02DC681D78187
:1023C0008A819B81E816F90628F490930C02809389
:1023D0000B022AC08E010E5F1F4FC8010E94EE0A39
:1023E0008C899D89892B21F0CE010C960E94EE0AE2
:1023F0009E8980915906891710F4909359069C9DE7
:10240000C0011124815A994FB8010E949D0AE091A0
:102410005306F09154069E898689981708F4BDCF1B
:10242000DD24D394BACFDD24E0915306F091540615
:10243000868990E0FC0133E0EE0FFF1F3A95E1F74B
:10244000E80FF91FE15AF94F8081823048F0DD240E
:10245000D39406C080915B068F5F80935B06DD247A
:1024600080915506882311F0DD24D3948D2DDF91C2
:10247000CF911F910F91FF90EF90DF90CF90089533
:10248000CF93DF93EC01E0915306F09154069383D0
:1024900082838091560690915706C817D90768F431
:1024A0008091B2069091B3066091530670915406E4
:1024B0006E5F7F4F0E94BC0A17C08091B00690915A
:1024C000B10660915306709154066E5F7F4F0E9473
:1024D000BC0A80910B0290910C02C817D90720F416
:1024E000D0930C02C0930B02DF91CF9108950F930C
:1024F0001F938A01E0915306F09154067068758726
:1025000064876091530670915406645F7F4F0E9408
:102510009D0A809153069091540602960E94EE0AFD
:102520008091560690915706800F911F0E9440128D
:102530001F910F9108950F931F938B016091530684
:1025400070915406645F7F4F0E94BC0A80915306CD
:102550009091540602960E94EE0A80915606909140
:102560005706800F911F0E9440121F910F910895EE
:10257000EF92FF920F931F93CF93DF930FB6F894D0
:102580000F9280915A06815080935A0680915A0684
:10259000882309F055C080915C06882359F550C006
:1025A000E091B906F091BA06C681D781CE010C96AA
:1025B0000E94EE0A8E010E5F1F4FC8010E94EE0AB4
:1025C0009E8980915906891710F4909359069E9D13
:1025D000C0011124815A994FB8010E949D0AE091CF
:1025E0005306F09154069E898689981738F0F09228
:1025F000550604C059E0E52EFF24F3948091B406FB
:10260000882371F680915B06882369F411C00E94CB
:102610007611882311F01093550680915B06815046
:1026200080935B0601C011E080915B06882379F7F7
:1026300080915506813021F40E94F60B81E001C0A3
:1026400080E00F900FBEDF91CF911F910F91FF900F
:10265000EF90089580915F06823018F00E94F60B8B
:10266000F9CFFFCF0F931F93CF93DF93EC01009728
:10267000C9F080915A068F5F80935A0600915606E2
:1026800010915706809153069091540602960E942D
:10269000EE0ACE01800F911F0E9440120E94B812D4
:1026A000882311F40E94F60BDF91CF911F910F91B7
:1026B0000895CF93DF93FC01EB0180915A068F5F61
:1026C00080935A0620915606309157068081918159
:1026D000C80FD91F2817390728F4C817D90728F0B9
:1026E00080E008C0C817D90720F080E02C173D070C
:1026F00008F481E0D183C083882351F08091530690
:102700009091540602960E94EE0ACE010E94401259
:102710000E94B812882311F40E94F60BDF91CF912A
:102720000895F89410925D060E94950B08952F92DB
:102730003F924F925F927F928F929F92AF92BF9201
:10274000CF92DF92EF92FF920F931F93CF93DF937D
:102750001C01962E872E5A012901702EE6018DE26A
:1027600090E00E94D0096C01009779F0209721F445
:10277000C5010E94D009EC01F601D08FC78B2097CC
:1027800009F0C4C0C6010E94C0098FEFADC08081AE
:1027900059968C9359978081882329F09F5F3196B1
:1027A00011969431A1F7F60114A6072DF6E0F7155E
:1027B00008F406E0F601068B72E0872E912C8C0C53
:1027C0009D1CC4010E94990AC6010C960E94990A98
:1027D000F601D186C08687E090E0801B910995873D
:1027E0008487D38AC28A0894A108B108CE018A0DD1
:1027F0009B1DB101A2010E94180BF60191838083F9
:10280000E114F10419F0F701D182C0820FB6F894F7
:102810000F9280915C068F5F80935C0680915306D7
:1028200090915406892B59F5D0925406C0925306C4
:1028300080915C06813091F5CFE5D6E0CE010E9413
:10284000890A2996F6E0CE39DF07C1F76EE9E62E50
:1028500066E0F62EC7010E94890A07EA16E0C80161
:102860000E94890A84EB96E00E94890AF092B106E0
:10287000E092B0061093B3060093B2060FC08091A9
:102880005D06882359F4E0915306F0915406868939
:10289000781620F0D0925406C092530680915E06BE
:1028A0008F5F80935E06F60196898091590689179D
:1028B00010F49093590689E0989FC0011124815A21
:1028C000994FB4010E949D0A0F900FBE80915D0642
:1028D000882349F0E0915306F091540686898715C4
:1028E00010F40E94F60B81E0DF91CF911F910F91C0
:1028F000FF90EF90DF90CF90BF90AF909F908F9020
:102900007F905F904F903F902F900895892D982D44
:102910009C01F901D60190E03ACFAF92BF92CF92DD
:10292000DF92EF92FF920F938AE293E168E770E003
:1029300045E550E020E030E000E0EE24FF24CC2428
:10294000DD24AA24BB240E949713813049F4F89413
:1029500080935D0610925706109256060E94600BF7
:102960000F91FF90EF90DF90CF90BF90AF900895C0
:102970003F983E9A3D983598329A319A3098379AD6
:102980000895982FFB01803240F56115710529F1FA
:1029900087B1807E87B987B1892B87B9369A80E065
:1029A00090E0A0E0B0E003C00196A11DB11D3499F4
:1029B00008C0803A26E8920721E0A20720E0B2078B
:1029C00099F786B182958F7080FF07C0349A84B1E1
:1029D00095B19183808381E0089580E00895982FD8
:1029E0008032C0F461157105A9F08091BF0688237B
:1029F00089F481E08093BF067093BE066093BD06A4
:102A000087B1807E87B987B1892B87B9339A369A87
:102A100081E0089580E008951F920F920FB60F9203
:102A200011242F933F934F935F936F937F938F93D3
:102A30009F93AF93BF93EF93FF93E091BD06F09107
:102A4000BE06309731F0339884B195B10995109254
:102A5000BF06FF91EF91BF91AF919F918F917F91B1
:102A60006F915F914F913F912F910F900FBE0F90FB
:102A70001F9018958CEF8ABB81E087BB8FEF84BBDA
:102A800011BA1BBA18BA80EF85BB82BB0895843097
:102A900008F075C0683008F072C0423008F06FC0AE
:102AA000813009F1813030F08230B1F1833009F0AA
:102AB00064C04BC0442361F42AB381E090E002C0BB
:102AC000880F991F6A95E2F7809582238ABB55C0CB
:102AD0002AB381E090E002C0880F991F6A95E2F75F
:102AE000282B2ABB4AC0442361F427B381E090E03D
:102AF00002C0880F991F6A95E2F78095822387BBF1
:102B00003CC027B381E090E002C0880F991F6A950E
:102B1000E2F7282B27BB31C0442361F424B381E0C2
:102B200090E002C0880F991F6A95E2F78095822392
:102B300084BB23C024B381E090E002C0880F991FBA
:102B40006A95E2F7282B24BB18C0442361F421B313
:102B500081E090E002C0880F991F6A95E2F78095A6
:102B6000822381BB0AC021B381E090E002C0880FBC
:102B7000991F6A95E2F7282B21BB81E0089580E038
:102B80000895843008F075C0683008F072C0423093
:102B900008F06FC0813009F1813030F08230B1F13E
:102BA000833009F064C04BC0413059F42BB381E04D
:102BB00090E002C0880F991F6A95E2F7282B2BBB83
:102BC00056C02BB381E090E002C0880F991F6A9530
:102BD000E2F7809582238BBB4AC0413059F428B379
:102BE00081E090E002C0880F991F6A95E2F7282BD8
:102BF00028BB3DC028B381E090E002C0880F991F38
:102C00006A95E2F78095822388BB31C0413059F440
:102C100025B381E090E002C0880F991F6A95E2F722
:102C2000282B25BB24C025B381E090E002C0880F8B
:102C3000991F6A95E2F78095822385BB18C04130C1
:102C400059F422B381E090E002C0880F991F6A9581
:102C5000E2F7282B22BB0BC022B381E090E002C038
:102C6000880F991F6A95E2F78095822382BB81E0E5
:102C7000089580E00895282FFA01843060F56830C7
:102C800050F54115510539F1813049F0813028F076
:102C9000823081F08330D1F40FC089B30EC086B387
:102CA00090E002C0959587956A95E2F780FF0DC088
:102CB00020830CC083B301C080B390E002C095951F
:102CC00087956A95E2F780FD03C0108281E0089540
:102CD00081E08083089580E008958430C0F56830F5
:102CE000B0F5813091F0813028F08230C9F0833026
:102CF00061F521C02BB381E090E002C0880F991FDD
:102D00006A95E2F728272BBB20C028B381E090E02A
:102D100002C0880F991F6A95E2F7282728BB15C0C3
:102D200025B381E090E002C0880F991F6A95E2F711
:102D3000282725BB0AC022B381E090E002C0880F9B
:102D4000991F6A95E2F7282722BB81E0089580E069
:102D50000895843040F5623030F5813071F0813073
:102D600028F0823089F08330E1F415C0662311F435
:102D70001ABA17C08FEF8ABB14C0662311F417BAB2
:102D800010C08FEF87BB0DC0662311F414BA09C0C1
:102D90008FEF84BB06C0662311F411BA02C08FEF17
:102DA00081BB81E0089580E00895843010F080E0D8
:102DB0000895813049F0813028F0823039F0833035
:102DC00031F407C06BBB03C068BB01C065BB81E0C9
:102DD000089562BB81E00895FB018430B0F4611571
:102DE000710599F0813049F0813028F0823039F056
:102DF000833049F406C089B305C086B303C083B3EA
:102E000001C080B3808381E0089580E00895AF928F
:102E1000BF92CF92DF92EF92FF920F931F93DF93B7
:102E2000CF9300D0CDB7DEB77C01009711F480E0DE
:102E30006CC08FEFF70180831A8200E010E05E0122
:102E40000894A11CB11CF801EC5DFD4FC08082E02C
:102E50006C2D40E00E94C11564E0D62E83E064E052
:102E6000A5010E943B168981882319F480E090E037
:102E700026C055E0D52E83E065E0A5010E943B16F3
:102E80008981882319F481E090E019C046E0D42EAE
:102E900083E066E0A5010E943B168981882319F42E
:102EA00082E090E00CC037E0D32E83E067E0A5011C
:102EB0000E943B1689818823C9F483E090E0F801E1
:102EC000EE0FFF1FEE0FFF1FE80FF91FEC5EFD4F27
:102ED0008081F701808305C083E06D2DA5010E94EC
:102EE0003B1689818823C1F3F1E0FA8382E06C2DDF
:102EF00041E00E94C1158A81813031F00F5F1F4F80
:102F00000430110509F09FCF81E00F900F90CF9111
:102F1000DF911F910F91FF90EF90DF90CF90BF90C6
:102F2000AF9008951F93182F80FF04C080E063E0E6
:102F300041E003C080E063E040E00E94C11511FF62
:102F400004C080E064E041E003C080E064E040E071
:102F50000E94C11512FF04C080E065E041E003C09B
:102F600080E065E040E00E94C11513FF04C080E0EE
:102F700066E041E003C080E066E040E00E94C115E9
:102F80001F910895FF920F931F93F82E80E067E042
:102F900041E00E94C11583E060E040E00E94C1155D
:102FA0008F2D82958F700E94921780E062E041E041
:102FB0000E94C11500ED17E0C8010197F1F780E00C
:102FC00062E040E00E94C1158F2D0E94921780E0C0
:102FD00062E041E00E94C115C8010197F1F780E06D
:102FE00062E040E00E94C1151F910F91FF9008958B
:102FF000AF92BF92CF92DF92EF92FF920F93DF9347
:10300000CF93CDB7DEB766970FB6F894DEBF0FBE8D
:10301000CDBF6B017C01611571058105910521F41E
:1030200080E30E94C2173CC000E05E010894A11C2E
:10303000B11CC501800F911D9E8B8D8BC701B60100
:103040002AE030E040E050E00E94A31DED89FE89B7
:103050006083C701B6012AE030E040E050E00E9402
:10306000A31DC901DA016C017D010F5FC114D104F8
:10307000E104F104F1F60150E02EFF246501CE0CCD
:10308000DF1CF6018081805D0E94C2170894C10890
:10309000D108E114F10421F00894E108F108F1CF1E
:1030A00066960FB6F894DEBF0FBECDBFCF91DF910D
:1030B0000F91FF90EF90DF90CF90BF90AF90089569
:1030C000CF93DF93EC0102C00E94C217899188233D
:1030D000D9F7DF91CF910895FF920F931F93F82EA8
:1030E00080E067E040E00E94C11583E060E040E0DE
:1030F0000E94C1158F2D82958F700E94921780E0DB
:1031000062E041E00E94C11500ED17E0C80101979F
:10311000F1F780E062E040E00E94C1158F2D0E942F
:10312000921780E062E041E00E94C115C80101975A
:10313000F1F780E062E040E00E94C1151F910F911D
:10314000FF90089581E00E946C180895813019F075
:10315000823051F405C0862F80580E946C18089563
:10316000862F80540E946C180895DF92EF92FF9290
:103170000F931F938C01F62EE42ED22E862F880FEC
:10318000880F880F805C0E946C18F80180810E9473
:10319000C217F80181810E94C217F80182810E9442
:1031A000C217F80183810E94C217F80184810E942E
:1031B000C217F80185810E94C217F80186810E941A
:1031C000C217F80187810E94C2178E2D6D2D0E94B3
:1031D000A6188F2D0E94C2171F910F91FF90EF909C
:1031E000DF90089580E067E040E00E94C11583E031
:1031F00060E040E00E94C11582E00E94921780E0EA
:1032000062E041E00E94C11580ED97E00197F1F77F
:1032100080E062E040E00E94C11588E20E946C18E4
:103220008EE00E946C1888E78A95F1F781E00E9491
:103230006C1880EA9FE00197F1F786E00E946C1815
:103240000895FC018081843038F46181683020F475
:103250000E946D1681E0089580E00895FC01808150
:10326000843088F46181683070F49281923058F42F
:10327000EF2B49F0913011F440E001C041E00E9491
:10328000C11581E0089580E00895FC0180818430BB
:1032900088F46181683070F49281923058F4EF2B99
:1032A00049F0913011F441E001C040E00E94C115A5
:1032B00081E0089580E0089582E062E040E00E94AD
:1032C000C11582E061E040E00E94C115089581309F
:1032D00059F482E062E040E00E94C11582E061E0C2
:1032E00041E00E94C1150895882351F482E061E015
:1032F00040E00E94C11582E062E041E00E94C115F9
:10330000089580E060E040E00E94C11580E061E047
:1033100041E00E94C11580E062E041E00E94C115D9
:1033200080E063E041E00E94C11580E064E041E09C
:103330000E94C1150895EF92FF920F931F93CF93B0
:10334000DF93E82E80E060E041E00E94C115FF2499
:103350000027F7FC0095102FC801B7010E94FB025F
:1033600020E030E044E35EE30E941F020E94490037
:10337000E62EE694E69410E0C0E2DEE45DC080E074
:1033800061E040E00E94C11580E062E041E00E94FF
:10339000C11580E063E041E00E94C11580E064E077
:1033A00041E00E94C115CE010197F1F780E061E094
:1033B00041E00E94C11580E062E040E00E94C1153A
:1033C00080E063E041E00E94C11580E064E041E0FC
:1033D0000E94C115CE010197F1F780E061E041E064
:1033E0000E94C11580E062E041E00E94C11580E0CA
:1033F00063E040E00E94C11580E064E041E00E948B
:10340000C115CE010197F1F780E061E041E00E9433
:10341000C11580E062E041E00E94C11580E063E0F8
:1034200041E00E94C11580E064E040E00E94C115C7
:10343000CE010197F1F71F5F1E1508F4A0CFDF91B1
:10344000CF911F910F91FF90EF9008950E943A1530
:103450000E94B8140E94F21880E895E20E94591D5B
:103460008DE790E00E947A1D8FE890E00E947A1D1F
:1034700008950F931F93CF93DF938091CE06909181
:10348000CF0661E070E00E945E08C8ECD0E0809159
:10349000CE069091CF066FE370E041E020E00FEFA1
:1034A0001FEF0E94BA088093CC069093CD0680FF50
:1034B00010C081E060E00E94A61881EA90E00E94BE
:1034C000601882E060E00E94A6188FEA90E00E94F7
:1034D00060188091CC0681FF0AC00E94A21881E08A
:1034E00060E00E94A6188BEB90E00E94601880912B
:1034F000CC0682FF0AC00E94A21881E060E00E9410
:10350000A61886EC90E00E9460188091CC0683FF9C
:1035100011C00E94A21881E060E00E94A61885ED0B
:1035200090E00E94601880E29EE4FE013197F1F77E
:103530000197D9F78091CC0684FF14C00E94A2188D
:1035400081E060E00E94A61880EE90E00E94601882
:1035500088EB9BE00E9432130E94A2188CEE90E050
:103560000E9460188091CC0685FF11C00E94A218AD
:1035700081E060E00E94A61888EF90E00E94601849
:1035800080E197E2FE013197F1F70197D9F784E6E0
:1035900090E00E9432137BCF0F931F93DF93CF9362
:1035A00000D0CDB7DEB78E010F5F1F4F81E0B801AD
:1035B0000E94C11469817A8180E090E028E833E1BB
:1035C00040E050E00E94841D2AE09695879577950B
:1035D00067952A95D1F7655C794028F08DE092E0F7
:1035E0000E94451904C08DE092E00E942E1984E6E5
:1035F00090E00E943213DACF0F931F93DF93CF93A3
:1036000000D0CDB7DEB78E010F5F1F4F80E0B8014D
:103610000E94C11469817A8180E090E024EF31E05A
:1036200040E050E00E94841D3AE09695879577959A
:1036300067953A95D1F76E31710520F082E063E02D
:1036400041E003C082E063E040E00E94C11584E6EF
:1036500090E00E943213DACFCF92DF92EF92FF9286
:103660000F931F93DF93CF930F92CDB7DEB71982DD
:103670006E010894C11CD11C8091D2069091D30692
:1036800060E070E04FEF5FEF20E00E94790E88234A
:1036900099F315C1C6010E94071789818B3221F069
:1036A0008D3209F008C193C0B3E0EB2E8091CE06B5
:1036B0009091CF0662E070E00E945E088EE190E09B
:1036C0000E94321300E010E0FF24C6010E94071799
:1036D00029812F3FD1F3C801A3E0880F991FAA9534
:1036E000E1F7000F111F800F911F022F10E0005310
:1036F0001040080F191F82E06F2D0E94A6188AE261
:103700000E94C217F39483E08F15F8F6980140E009
:1037100050E08091100290911102A0911202B0919C
:1037200013026091CE067091CF06281739074A0719
:103730005B0709F03FC0CB0164E070E00E945E08C7
:1037400084E690E00E943213FF2400E010E0C601FE
:103750000E94071729812F3FD1F3C801E3E0880FAA
:10376000991FEA95E1F7000F111F800F911F022F9B
:1037700010E000531040080F191F82E06F2D0E94C7
:10378000A61889810E94C217F39483E08F15F8F67A
:10379000C801A0E0B0E08093100290931102A093C2
:1037A0001202B09313028091CE069091CF0661E091
:1037B00070E05EC0CB0160E270E00E945E088EE1C6
:1037C00090E00E943213EA9409F070CF60C063E089
:1037D000E62E8091CE069091CF0662E070E00E94C6
:1037E0005E088EE190E00E94321300E010E0FF24BA
:1037F000C6010E94071729812F3FD1F3C80153E06A
:10380000880F991F5A95E1F7000F111F800F911F24
:10381000022F10E000531040080F191F82E06F2D97
:103820000E94A6188AE20E94C217F39483E08F15C3
:10383000F8F6980140E050E080911002909111025A
:10384000A0911202B09113026091CE067091CF0642
:10385000281739074A075B0771F4CB0160E170E074
:103860000E945E088091D0069091D10660E170E0E0
:103870000E945E0820C0CB0160E270E00E945E08FA
:103880008CE291E00E943213EA9409F0A2CF809179
:10389000CE069091CF0668E070E00E945E088091AD
:1038A000D0069091D10660E270E00E945E088EE141
:1038B00090E00E9432138AE090E00E9432138091DF
:1038C000100290911102A0911202B0911302009780
:1038D000A105B10509F0DECE8AE090E00E94321326
:1038E000CBCE0F931F938091D0069091D10660E3C9
:1038F00070E041E020E00FEF1FEF0E94BA088093D4
:10390000CA069093CB0684FF2DC081E00E94671900
:1039100088EE93E00E9432130E945C1988EB9BE0D2
:103920000E94321380E00E94671988EE93E00E94A3
:1039300032130E945C198091CE069091CF0661E00F
:1039400070E00E945E088091D2069091D30660E0FC
:1039500070E040E050E020E00E942C0F84E690E010
:103960000E9432138091CA0685FFBDCF81E060E0DE
:1039700041E00E94C11588EE93E00E94321381E07D
:1039800060E040E00E94C11588EE93E00E9432138F
:103990008091CE069091CF0661E070E00E945E08B3
:1039A0008091D2069091D30660E070E040E050E054
:1039B00020E00E942C0F84E690E00E94321393CF07
:1039C000AF92BF92CF92DF92EF92FF920F930E943D
:1039D000261A0E94AD099093D1068093D0060E94CA
:1039E000AD099093CF068093CE0681E060E043E07E
:1039F0000E9419109093D3068093D206009739F055
:103A000060E070E040E050E020E00E942C0F81E791
:103A10009CE160E070E044E650E020E030E005E04A
:103A2000E0ECEE2EE6E0FE2ECC24DD24AA24BB241E
:103A30000E9497138CE29BE160E070E046E950E061
:103A400020E030E004E0B2ECEB2EB6E0FB2E0E946A
:103A500097138CEF9AE160E070E044E650E020E0DC
:103A600030E002E0A4ECEA2EA6E0FA2E0E949713C2
:103A70008CEC9AE160E070E044E650E020E030E059
:103A800001E0F6ECEF2EF6E0FF2E0E94971389E39B
:103A90009AE160E070E044E650E020E030E003E0CE
:103AA000E8ECEE2EE6E0FE2E0E9497130E948D14A5
:103AB000FFCF9C0140E050E084E0220F331F441F01
:103AC000551F8A95D1F760E072E18AE790E00E9485
:103AD000A31D2150304029B930BD86E880BD88E162
:103AE0008AB908955F9BFECF8CB108955D9BFECF90
:103AF0008CB90895FC0104C05D9BFECF8CB9319652
:103B000080818823C9F70895629FD001739FF001D7
:103B1000829FE00DF11D649FE00DF11D929FF00D5D
:103B2000839FF00D749FF00D659FF00D9927729F94
:103B3000B00DE11DF91F639FB00DE11DF91FBD011F
:103B4000CF0111240895A1E21A2EAA1BBB1BFD016F
:103B50000DC0AA1FBB1FEE1FFF1FA217B307E4076C
:103B6000F50720F0A21BB30BE40BF50B661F771FC4
:103B7000881F991F1A9469F76095709580959095A4
:103B80009B01AC01BD01CF01089597FB092E0526CD
:103B90000ED057FD04D0D7DF0AD0001C38F4509562
:103BA0004095309521953F4F4F4F5F4F0895F6F761
:103BB00090958095709561957F4F8F4F9F4F089599
:103BC0002F923F924F925F926F927F928F929F922D
:103BD000AF92BF92CF92DF92EF92FF920F931F931B
:103BE000CF93DF93CDB7DEB7CA1BDB0B0FB6F894CC
:103BF000DEBF0FBECDBF09942A88398848885F840C
:103C00006E847D848C849B84AA84B984C884DF807C
:103C1000EE80FD800C811B81AA81B981CE0FD11D60
:103C20000FB6F894DEBF0FBECDBFED010895FB01C6
:103C3000DC0102C001900D9241505040D8F7089528
:043C4000F894FFCF26
:103C440051436F6E734E42005150726F644E420086
:103C5400496E744D6174680049444C45002020202D
:103C6400536D61727420486F6D6520200D0A002029
:103C74002020202047726F757020312020200D0AEB
:103C8400002B204368616E67652050617373002DBB
:103C9400204F70656E20446F6F7200456E746572BC
:103CA400205061737300456E746572204E657720F1
:103CB4005061737300424C4F434B45442021210013
:103CC400446F6F72204F70656E656400446F6F724D
:103CD40020436C6F7365640057726F6E6720506188
:103CE40073730000000000000000000001020203E2
:103CF400030303040404040404040405050505057E
:103D0400050505050505050505050506060606065A
:103D1400060606060606060606060606060606063F
:103D2400060606060606060606060607070707072A
:103D3400070707070707070707070707070707070F
:103D440007070707070707070707070707070707FF
:103D540007070707070707070707070707070707EF
:103D640007070707070707070707070808080808DA
:103D740008080808080808080808080808080808BF
:103D840008080808080808080808080808080808AF
:103D9400080808080808080808080808080808089F
:103DA400080808080808080808080808080808088F
:103DB400080808080808080808080808080808087F
:103DC400080808080808080808080808080808086F
:103DD400080808080808080808080808080808085F
:103DE4000808080808080808080808FFFF02000176
:103DF400D20400003738392F3435362A3132332D86
:083E040072303D2B0405060796
:00000001FF
